:020000040800F2
:10000000280B002089010008AB140008EB11000840
:10001000A9140008B70200086D19000800000000CC
:100020000000000000000000000000007115000842
:10003000E102000800000000B1140008C917000820
:10004000A3010008A3010008A3010008A301000800
:10005000A3010008A3010008A3010008A3010008F0
:10006000A3010008A3010008A3010008A3010008E0
:10007000A3010008A3010008A3010008A3010008D0
:10008000A3010008A3010008A3010008A3010008C0
:10009000A3010008A3010008A3010008A3010008B0
:1000A000A3010008A3010008A3010008A3010008A0
:1000B000A3010008A3010008A3010008A301000890
:1000C000A3010008A3010008A3010008A301000880
:1000D000A3010008A3010008A3010008A301000870
:1000E000A3010008A3010008A301000800F002F822
:1000F00000F03AF80AA090E8000C82448344AAF188
:100100000107DA4501D100F02FF8AFF2090EBAE885
:100110000F0013F0010F18BFFB1A43F0010318473B
:10012000241C0000441C0000103A24BF78C878C189
:10013000FAD8520724BF30C830C144BF04680C60ED
:10014000704700000023002400250026103A28BF35
:1001500078C1FBD8520728BF30C148BF0B60704739
:100160001FB51FBD10B510BD00F06BF81146FFF7AD
:10017000F7FF01F0CFFC00F089F803B4FFF7F2FFBE
:1001800003BC00F091F80000094880470948004787
:10019000FEE7FEE7FEE7FEE7FEE7FEE7FEE7FEE737
:1001A000FEE7FEE704480549054A064B7047000094
:1001B0002D180008ED00000828050020280B00205D
:1001C0002807002028070020B2F120030AD5C2F139
:1001D000200320FA02F001FA03F321FA02F140EAC7
:1001E0000300704721FA03F04FF0000170474FF011
:1001F000000200B5134694469646203922BFA0E877
:100200000C50A0E80C50B1F12001BFF4F7AF090782
:1002100028BFA0E80C5048BF0CC05DF804EB890073
:1002200028BF40F8042B08BF704748BF20F8022BB6
:1002300011F0804F18BF00F8012B704770477047CE
:100240007047754600F02CF8AE46050069465346E7
:1002500020F00700854618B020B5FFF7A3FFBDE8E2
:1002600020404FF000064FF000074FF000084FF01D
:10027000000B21F00701AC46ACE8C009ACE8C009AE
:10028000ACE8C009ACE8C0098D46704710B504461B
:10029000AFF300802046BDE81040FFF76EBF0000BE
:1002A00000487047C804002001491820ABBEFEE793
:1002B000260002007047FEE730B5044600206518AE
:1002C00004E000BF14F8011B01F040FBAC42F9D37D
:1002D000002101F03BFBBDE83040002101F036BBBE
:1002E000704772B6FEE7000030B585B000250446C1
:1002F000049500F0A3F90B48011B012000EB9121AC
:10030000CDE90241CDE9005004A9684600F0E6F8C5
:10031000044600F049F914B1012005B030BD0020B9
:10032000FBE70000FFFF000800B587B000F086F98A
:10033000684600F027F900F037F90299F820884361
:1003400000D0022007B000BD10B500F077F90349D6
:100350003420C860BDE8104000F026B900200240FB
:100360002DE9F041164688460546002400F066F95E
:100370000E4F13E058F8242000232946022000F0F5
:100380001DF910B10320BDE8F08158F82400296858
:10039000814201D00220F6E7641C2D1DB44201D237
:1003A000BD42E7D900F000F90020ECE7FBFF0008B0
:1003B00006490020C8610648016941F00401016155
:1003C000016941F0400101617047000060000020B8
:1003D000002002400449A520C96901F00201022958
:1003E00000D100207047000000200240064A002192
:1003F000D16106490A6942F002020A61486108694E
:1004000040F040000861704760000020002002407A
:10041000044B0022DA61044A136943F001031361BB
:100420000180704760000020002002401448002234
:10043000C168CB06134904D5CA6942F00202CA61F9
:100440001022C3685B0705D5CB6943F00103CB617C
:1004500042F00402C369DB0707D0CB6943F0040311
:10046000CB61C16921F00101C161A2F5807101393F
:1004700001D0C2607047C16921F00101C1617047BC
:10048000002002406000002070B5054600F0E0F951
:100490000646114C09E0681C07D025B100F0D8F9D8
:1004A000801BA84201D9032070BDE068C007F2D1CB
:1004B000E068800601D52020E060E068C00605D431
:1004C000E069C00702D1E068400703D5FFF7AEFF3F
:1004D000012070BD002070BD002002402DE9F047D2
:1004E000054626480F460126017E01290FD001212D
:1004F000814601762868DFF888804CF25034022863
:1005000008D0A2462046FFF7BFFFA8B131E0022085
:10051000BDE8F0872046FFF7B7FF08BB0120FFF7D3
:1005200047FF2046FFF7B0FFD8F81010064621F02D
:100530000401C8F810101CE04FF0FF303860AC68C0
:1005400011E02046FFF752FF5046FFF79DFFD8F815
:100550001010060021F00201C8F8101001D03C6014
:1005600007E004F58064D5E9020100EB8120A04298
:10057000E7D8002189F818103046C9E7600000204C
:100580000020024070B50446064D07202060286A0E
:10059000A060FFF71FFF2074E869C0F38200607459
:1005A00070BD0000002002400348016941F0800155
:1005B0000161002070470000002002402DE9F05F3B
:1005C00007461C4888460024017E15461E46012920
:1005D00009D00121814601764CF2503A5046FFF78E
:1005E00053FF18B122E00220BDE8F09F012F02D096
:1005F000022F00D00427D346DFF83CA02201284672
:100600003146FFF7E1FD81B208EB4400FFF700FF40
:100610005846FFF739FFDAF8102022F00102CAF835
:10062000102018B9641CE4B2BC42E7D3002289F858
:100630001820D9E760000020002002400649002071
:100640000A69120607D5054A4A60054A4A600969DF
:10065000090600D5012070470020024023016745AC
:10066000AB89EFCD2DE9F84FDFF8B891002409F1FF
:10067000040A0AF1040B23460F270BF1040EC9E00C
:100680000125A5402A40AA427DD1674ED1F804C079
:10069000ACEB0608B44532D014DCBCF1030F3AD001
:1006A00009DCBCF1000F2AD0BCF1010F1CD0BCF159
:1006B000020F31D11DE0BCF1110F17D0BCF1120FA8
:1006C0002AD119E0B8F5881F19D006DCB8F5803FAB
:1006D00015D0B8F5801F1FD111E0B8F5001F0ED05E
:1006E000B8F5041F18D10AE0CB6815E0CB681B1DD4
:1006F00012E0CB6808330FE0CB680C330CE08B685A
:100700002BB1012B4FF0080303D0456104E0042313
:1007100002E0056100E00023FF2A01D8064601E05F
:1007200000F104064FEA840501D9A5F12005D6F8A9
:10073000008007FA05FC28EA0C0803FA05F548EAE8
:100740000508C6F800804D68ED0062D5374DAE69EA
:1007500046F00106AE61AD6924F0030605F001051F
:100760000095334D06EB050CDCF80850A607360F54
:1007700007FA06F825EA0805DFF8B880404503D1F6
:100780004FF0000817E044E0DFF8AC80404502D1AC
:100790004FF001080FE0DFF8A480404502D14FF090
:1007A000020808E0DFF89880404502D14FF00308C6
:1007B00001E04FF0040808FA06F848EA0508CCF80A
:1007C00008804D68D9F80060ED034D4601D5164309
:1007D00000E096432E604D68DAF80060AD035546A0
:1007E00001D5164300E096432E604D68DBF80060AB
:1007F000ED025D4601D5164300E096432E604D683C
:10080000DEF80060AD02754601D5164300E0964360
:100810002E60641C0D682A46E5407FF431AFBDE8C8
:10082000F88F000000040140000011100010024089
:100830000000014000080140000C01400010014090
:10084000001401408068084000D00120704700007B
:10085000014880687047000000000020024881685D
:10086000027811448160704700000020074810B5ED
:10087000016841F010010160032000F067F80F20CB
:1008800000F006F800F024F8002010BD002002401F
:1008900070B50D4D04464FF47A712878B1FBF0F035
:1008A0000A490968B1FBF0F000F060FB48B9102C70
:1008B00007D200222146501E00F028F800206C606C
:1008C00070BD012070BD0000000000200C00002061
:1008D0000C4808B5816941F001018161816901F02D
:1008E00001010091C16941F08051C161C06900F00E
:1008F000805000900448416821F0E06141F00071AF
:10090000416008BD0010024000000140F0B40E4BF1
:100910001B680C46C3F30223C3F10705042D00D95D
:100920000425191D072901D2002300E0DB1E012642
:1009300006FA05F1491E214099409E40761E164058
:100940003143F0BC01F0D6B80CED00E0064900F0F0
:10095000070208684FF6FF03184040EA0220034AE6
:1009600010430860704700000CED00E00000FA053D
:10097000704700002DE9F0470F46050061D0434E57
:10098000306800F00700B84209D2306820F0070054
:1009900038433060306800F00700B84251D1286811
:1009A0003B4C810712D5400703D5606840F4E060F6
:1009B00060602878000703D5606840F4605060608C
:1009C0006068A96820F0F000084360602878C007DC
:1009D00028D06868012810D02168022810D0890723
:1009E00000292EDA616821F0030101436160FFF7FD
:1009F0002FFF804641F288390DE021688903EFE737
:100A00008901EDE7FFF724FFA0EB0801494502D972
:100A10000320BDE8F0876068696800F00C00B0EB67
:100A2000810FEFD1306800F00700B8420BD9306871
:100A300020F0070038433060306800F00700B8420B
:100A400001D00120E5E72878400705D56068E9680E
:100A500020F4E060084360602878000706D56068ED
:100A6000296920F4605040EAC100606000F0ACF8F1
:100A70006168084AC1F30311515CC8400649086027
:100A800006480068FFF704FF0020C2E7002002408C
:100A9000001002405C1B00080C0000200400002035
:100AA0002DE9F041FFF7D4FE304C0546206840F0B8
:100AB0000100206005E000BFFFF7CAFE401B0228CE
:100AC00043D820688007F7D5206820F0F80040F070
:100AD00080002060FFF7BCFE00250646656041F2FD
:100AE000883704E0FFF7B4FE801BB8422DD8606859
:100AF00010F00C0FF6D11F491D4808601E48006811
:100B0000FFF7C6FE10B10120BDE8F081FFF7A0FE9F
:100B10000646206820F08070206004E0FFF798FE11
:100B2000801B022811D820688001F7D46560FFF788
:100B30008FFE0646206820F41020206007E000BFEA
:100B4000FFF786FE801B642801D90320DCE72068BC
:100B50008003F5D4206820F480202060606A40F093
:100B600080706062A5600020CEE7000000100240A7
:100B700000127A000C00002004000020014901202E
:100B8000C86470470000424204480549006849684B
:100B9000044AC1F30221515CC84070470C00002098
:100BA000001002406C1B00080448054900684968B1
:100BB000044AC1F3C221515CC84070470C000020B8
:100BC000001002406C1B000812A185B00FC98DE80F
:100BD0000F0014A0144A006804905168134801F0F3
:100BE0000C03042B10D0082B0ED1C1F38343C9038F
:100BF0001DF803000AD5516804AAC1F34041515CB5
:100C00000A4A5043B0FBF1F005B070470849484329
:100C1000FAE7000002030405060708090A0B0C0D99
:100C20000E0F1010010200000010024000127A00A6
:100C300000093D0010B5044CA068000603D5FFF77D
:100C400097FE8020A07210BD001002402DE9F84FE1
:100C5000040070D02078C04DC00749D06868C0F348
:100C60008100012807D06868C0F38100022809D1FB
:100C70006868C00306D52868800339D560680028F5
:100C8000E7D035E06068B0F5803F0BD010B1B0F52B
:100C9000A02F11D0286820F480302860286820F424
:100CA000802002E0286840F480302860606890B1BD
:100CB000FFF7CEFD06460AE0286840F48020286051
:100CC000F0E700BFFFF7C4FD801B642873D82868D5
:100CD0008003F7D50CE0FFF7BBFD064605E000BF3B
:100CE000FFF7B6FD801B6428F0D828688003F7D48E
:100CF00020789A4E80074FF001094FF0000839D54F
:100D0000686810F00C0F07D06868C0F381000228F3
:100D100009D16868C00306D42868800714D5206903
:100D2000012808D110E02069B0B1C6F80090FFF7A3
:100D30008FFD074605E00AE1FFF78AFDC01B022888
:100D4000C4D828688007F7D52868616920F0F800C2
:100D500040EAC10028600DE0C6F80080FFF778FD8A
:100D6000074604E0FFF774FDC01B022823D828685B
:100D70008007F7D4207800072CD57948A169D9B12C
:100D8000C0F80090FFF764FD074604E0FFF760FD40
:100D9000C01B02280FD8686A8007F7D571484FF446
:100DA000FA510068B0FBF1F0009000BF0098411EBE
:100DB0000091FAD20EE080E0C0F80080FFF748FD15
:100DC000074604E0FFF744FDC01B022875D8686A97
:100DD0008007F7D42078400760D5E8690027C00075
:100DE00008D4E86940F08050E861E869012700F024
:100DF000805000905C480168C90513D4016883469F
:100E000041F480710160FFF723FD824606E000BFD8
:100E1000FFF71EFDA0EB0A0064284ED8DBF80000A7
:100E2000C005F5D5E06801280AD008B1052813D01F
:100E3000286A20F001002862286A20F0040002E0FD
:100E4000286A40F001002862E06841F2883B98B1CE
:100E5000FFF7FEFC82460BE0286A40F0040028629F
:100E6000EEE700BFFFF7F4FCA0EB0A0159455AD8A2
:100E7000286A8007F6D50CE0FFF7EAFC824605E019
:100E8000FFF7E6FCA0EB0A0159454CD8286A800719
:100E9000F6D41FB1E86920F08050E861E06988B3BA
:100EA0006968C1F38101022944D00228C6F8608034
:100EB00004D0FFF7CDFC044638E034E0FFF7C8FC6F
:100EC000074604E0FFF7C4FCC01B02282BD82868A3
:100ED0008001F7D4206AB0F5803F05D16868A16829
:100EE00020F4003008436860D4E9080108436968C9
:100EF00021F4741108436860C6F86090FFF7A8FCFD
:100F0000044606E025E000BFFFF7A2FC001B022814
:100F100009D828688001F7D51BE000BFFFF798FCCF
:100F2000001B022802D90320BDE8F88F2868800141
:100F3000F4D40EE00128F7D06868226A00F480310A
:100F4000914204D1616A00F47010884201D00120FE
:100F5000EAE70020E8E700000010024000004242FB
:100F6000800442420C0000200070004010B5401E7A
:100F7000B0F1807F01D3012010BD4FF0E02460610B
:100F80000F21601700F0B6FD0020A061072020614E
:100F9000002010BD70B5040004D094F83D00002579
:100FA00010B106E0012070BD84F83C50204600F0EE
:100FB00023F8242084F83D002068C16821F4005102
:100FC000C160204600F034FC2068016921F49041A2
:100FD00001612068416921F02A0141612068C168EE
:100FE00041F40051C1602564202084F83D0084F85C
:100FF0003E00002070BD000030B585B00024009494
:101000000194029403940068174988422AD1174832
:10101000816941F480418161816901F480410491D9
:10102000816941F0080181618069114D00F008007B
:101030000490402000900220019003200390694614
:101040002846FFF70FFB8020CDE9000469462846BB
:101050000294FFF707FB0748416841F0E06141F067
:101060000401416005B030BD00380140001002406D
:10107000000C0140000001402DE9F84F044690F8B3
:101080003E009A4616460D46202853D1FDB1F6B1D2
:1010900094F83C0001284DD0012084F83C00002742
:1010A0002764222084F83E002763FFF7D1FBA68542
:1010B0008146E685A0684FF48058404501D12069FB
:1010C00040B12E465FF0000584F83C7027E0012017
:1010D000BDE8F88F0026F7E74B4600222021204686
:1010E000CDF800A000F000FC08B10320F0E726B125
:1010F000A06840451BD038B108E020684068C0F3C4
:10110000080025F8020B07E0206980B120684068DC
:1011100000F07F0006F8010BE08D401EE085E08DB9
:101120000028D9D1202084F83E000020D0E7206894
:101130004068EFE70220CBE72DE9F843044690F83A
:101140003D001F4616460D4620284CD1C5B1BEB104
:1011500094F83C00012846D0012084F83C004FF070
:101160000008C4F84080212084F83D00FFF770FBA0
:10117000A6848146E684A068B0F5805F03D004E0D1
:101180000120BDE8F883206928B12E465FF00005F4
:1011900084F83C800EE00026FAE78021204600F02B
:1011A000A3FBA0B9AEB116F8010B21684860E08C32
:1011B000401EE084E08C4B464FF000020097002870
:1011C000EBD14FF04001204600F08EFB30B1032000
:1011D000D7E735F8020BC0F30800E6E7202084F8D3
:1011E0003D000020CDE70220CBE7FEE7F0B500226E
:1011F0000D4B154614460A27B1FBF3F630368654DC
:10120000B1FBF3F603FB1611B3FBF7F3521C861880
:1012100016F8016C302E00D125B16D1C641C0A2C0F
:10122000EAD3F0BD0022F9E700CA9A3B00B585B0C9
:101230000020019003901148816941F020018161F3
:10124000816901F020010491816941F0040181610B
:10125000816901F004010491816941F00801816113
:101260008069694600F00800049040200090012049
:1012700002900348FFF7F6F905B000BD00100240E8
:10128000000801400C4810B50A4901604FF4E131F3
:101290004160002181600C22C160C0E904128161BB
:1012A000C161FFF777FE002803D0BDE81040FFF7CB
:1012B00018B810BD003801401C00002008B50020FF
:1012C0008DF80000264800F015FA264800F012FAC2
:1012D000254800F00FFA254800F00CFA224800F0EB
:1012E00009FA234800F006FA1D4800F003FA21A08D
:1012F00000F000FAFFF718F8204C214E214D224F44
:101300004FF0FF38206021A000F0F4F92FA000F08A
:10131000F1F93EA000F0EEF9306840684346012242
:1013200069461748FFF7A8FE9DF80000312805D050
:10133000322806D045A000F0DDF9E4E700F01AF904
:10134000E1E750A000F0D6F9FFF7AAFB3D6068681E
:10135000A0606060296881F308888047D3E70000B7
:10136000F81C0008141C0008C81B0008AC1C00086E
:10137000601C00080D0A0D0A00000000100000208B
:101380001C0000200030000808ED00E00D0A3D3D83
:101390003D3D3D3D3D3D3D3D3D3D3D3D3D3D3D3D7D
:1013A0003D204D61696E204D656E75203D3D3D3D92
:1013B0003D3D3D3D3D3D3D3D3D3D3D3D3D3D3D3D5D
:1013C0003D3D3D3D3D3D3D3D0D0A0A002020446F21
:1013D000776E6C6F616420696D61676520746F2042
:1013E00074686520696E7465726E616C20466C610C
:1013F0007368202D2D2D2D2D2D2D2D2D2D2D2D2DA9
:101400002D2D2D2D20310D0A0A00000020204578B9
:10141000656375746520746865206C6F61646564CC
:10142000206170706C69636174696F6E202D2D2D61
:101430002D2D2D2D2D2D2D2D2D2D2D2D2D2D2D2DDC
:101440002D2D2D2D20320D0A0A000000496E7661E7
:101450006C6964204E756D6265722021203D3D3EB1
:1014600020546865206E756D6265722073686F75B3
:101470006C642062652065697468657220312C2077
:10148000320D000053746172742070726F67726164
:101490006D20657865637574696F6E2E2E2E2E2E05
:1014A0002E0D0A0A00000000FEE7FFF7C3FBFEE76F
:1014B000704700002DE9F84300240F460646904689
:1014C00013460C60012269462848FFF7D5FD050048
:1014D00020D19DF80000182820D006DC01280BD070
:1014E00002280BD0042804D104E0412827D0612829
:1014F00025D0012530700DE0802401E04FF4806498
:101500003070221D4346B11C1848FFF7B5FD050099
:1015100017D0002428463C60BDE8F88343460122EA
:1015200069461248FFF7A8FD18B99DF80000182871
:1015300003D001259DF80000DCE70224DAE702254C
:10154000D8E7F178B07881F0FF0188420AD13019EC
:101550000179407900EB01282146301DFEF7ACFEF1
:101560004045D7D000240125D4E700001C0000200E
:10157000704700001FB5002000900190029003907A
:1015800015A000F0B7F803A800F0F2F938B105286B
:101590001AD004281CD002281CD01EA015E0254813
:1015A00000F0A8F8244800F0A5F868460399FFF772
:1015B0001DFE22A000F09EF8684600F09BF822A0D5
:1015C00000F098F823A000E028A000F093F81FBDD9
:1015D00036A0FAE73CA0F8E757616974696E6720A6
:1015E000666F72207468652066696C6520746F2070
:1015F00062652073656E74202E2E2E202870726511
:1016000073732027612720746F2061626F727429C1
:101610000A0D00000A0D4661696C656420746F2034
:1016200072656365697665207468652066696C65B6
:10163000210A0D00741B0008800000200A0D2053B1
:10164000697A653A200000002042797465730D0ABA
:10165000000000002D2D2D2D2D2D2D2D2D2D2D2D6E
:101660002D2D2D2D2D2D2D0A000000000A0A0D54C0
:10167000686520696D6167652073697A65206973A3
:1016800020686967686572207468616E2074686597
:1016900020616C6C6F776564207370616365206D89
:1016A000656D6F7279210A0D000000000A0A0D565F
:1016B0006572696669636174696F6E206661696CE1
:1016C0006564210A0D0000000D0A0A41626F727400
:1016D000656420627920757365722E0A0D00000022
:1016E00001B56423012269460148FFF725FD08BDC5
:1016F0001C000020002201E0521C92B2815C0029F3
:10170000FAD1014664230148FFF716BD1C000020F2
:10171000F0B5054600242A7820462346302A2ED1EB
:101720006A78782A01D0582A29D102241CE000BF07
:10173000A2F14106052E07D9A2F16107052F03D9B1
:101740001136092E04D913E0A2F13007092F01D870
:10175000303A04E0052E01D8373A00E0573A641CCD
:1017600002EB03130B2C04D22A5D002AE0D103E024
:1017700000202A5D002A01D101200B60F0BD2A5D06
:1017800062B16B2A01D04B2A02D10CB19B0205E059
:101790006D2A01D04D2A04D11CB11B0501200B601C
:1017A0000AE0A2F13006092E0CD803EB83036FF098
:1017B0002F0606EB43031344641C0B2CDED20128D6
:1017C000DDD1F0BD0020F0BDFFF748B830B58FB0D7
:1017D00028216846FEF70BFD14210AA8FEF707FD35
:1017E00001210804CDE9001000240294022504918F
:1017F000CDE907504FF4E01009906846FFF726FA4C
:1018000008B172B6FEE70F20CDE90A054FF48060FB
:10181000CDE90C4002210AA80E94FFF7ABF808B1FD
:1018200072B6FEE7FFF7AAF90FB030BD70470000AF
:1018300070B5044600680169E26821F44051114323
:1018400001612169A0680843616908432168CA6889
:1018500041F20C639A430243CA6020684169A2695D
:1018600021F44071114341611E492068884202D130
:10187000FFF79AF901E0FFF787F900EBC00101EBF0
:101880000012606864218000B2FBF0F3B3FBF1F357
:101890006FF018067343B2FBF0F5B2FBF0F605EB00
:1018A0008305322303EB0515B5FBF1F5B6FBF1F625
:1018B00005F0F00505EB0615B2FBF0F6B2FBF0F013
:1018C000B0FBF1F06FF01802504306EB800003EB21
:1018D0000010B0FBF1F0216800F00F002844886090
:1018E00070BD0000003801402DE9F04198461746D0
:1018F0000E460446069D1DE0681C1BD02DB1FEF768
:10190000A7FFA0EB0800A84214D92068C16821F401
:10191000D071C1602068416921F00101416120203E
:1019200084F83D0084F83E00002084F83C00032049
:10193000BDE8F0812068006836EA000004D000208D
:10194000B842D9D00020F3E70120F9E741F48071D3
:1019500041F2210240004900CB0500D5401CC303E1
:1019600000D55040CB03F5D580B27047FEE70000AC
:101970002DE9F14F0027DFF86CA188B03E46B9464B
:101980003C46D346A6E000BF4FF0000845469DE028
:101990004FF47A7204A95448FFF78CFD60B1022815
:1019A0006AD0B9F1000F00D0761C052E65D9182039
:1019B000FFF796FE182087E00498002670B10228F1
:1019C00007D0494908F0FF028B7893420BD01520CD
:1019D0007AE00620FFF784FE022477E00620FFF776
:1019E0007FFE012572E0B8F1000F12D08208584640
:1019F000091DFEF7B5FCE8B31820FFF771FE1820AB
:101A0000FFF76EFE5FF0040408F101084FF00109D2
:101A10005CE0087978B30020344B091D02E01A54C9
:101A2000401C491C0A780AB14028F8D34FF0000C3A
:101A300003F800C060466B4601E01A54401C11F8E0
:101A4000012F202A01D01028F7D303F800C006A9DF
:101A50001846FFF75DFE08984DF2010100688842C4
:101A600015D918200C058DF814002346012205A96C
:101A70001F4803E01CE015E020E024E0FFF75CFBDA
:101A80002346012205A91A48FFF756FB05245046B4
:101A9000FEF72AFC0898069901600620FFF720FE51
:101AA000432008E00620FFF71BFE01252F460DE02E
:101AB000049906208B44FFF713FEA5E71820FFF7D3
:101AC0000FFE182086E74320FFF70AFE55EA0400C0
:101AD0003FF45EAF57EA04003FF456AF09B020462A
:101AE000BDE8F08F00300008C0000020800000201A
:101AF0001C0000200907090E002804DB00F1E0208B
:101B000080F80014704700F00F0000F1E02080F82A
:101B1000141D7047FEF7AAFEFFF758FEFFF786FB7D
:101B2000FFF7B0FB40210A48FEF78CFE50B1FEF7EC
:101B3000B7FF0948074901604868096881F30888C8
:101B40008047FEE7FEF700FCFFF7B8FBF9E700006F
:101B5000000801400030000808ED00E0000000002F
:101B6000000000000102030406070809000000004D
:101B7000010203040A0A0D2050726F6772616D6DD5
:101B8000696E6720436F6D706C6574656420537572
:101B9000636365737366756C6C79210A0D2D2D2D49
:101BA0002D2D2D2D2D2D2D2D2D2D2D2D2D2D2D2D65
:101BB0002D2D2D2D2D2D2D2D2D2D2D2D2D0D0A20A5
:101BC0004E616D653A2000000D0A3D202020202046
:101BD0002020202020202020202020202020202005
:101BE00020202020202020202020202020202020F5
:101BF00020202020202020202020202020202020E5
:101C00002020202020202020202020202020203DB7
:101C1000000000000D0A3D20202020202020202050
:101C2000202020202028432920434F505952494743
:101C3000485420323031362053544D6963726F65F9
:101C40006C656374726F6E6963732020202020209E
:101C500020202020202020202020203D00000000E7
:101C60000D0A3D2020202020202020202020202080
:101C70002020202020202020202020202020202064
:101C80002020202020204279204D434420417070A4
:101C90006C69636174696F6E205465616D202020EA
:101CA000202020202020203D000000000D0A3D20A3
:101CB0002053544D33324631787820496E2D41708F
:101CC000706C69636174696F6E2050726F677261C6
:101CD0006D6D696E67204170706C69636174696FC6
:101CE0006E20202856657273696F6E20312E302E5B
:101CF0003029203D000000000D0A3D3D3D3D3D3DA9
:101D00003D3D3D3D3D3D3D3D3D3D3D3D3D3D3D3D03
:101D10003D3D3D3D3D3D3D3D3D3D3D3D3D3D3D3DF3
:101D20003D3D3D3D3D3D3D3D3D3D3D3D3D3D3D3DE3
:101D30003D3D3D3D3D3D3D3D3D3D3D3D3D3D3D3DD3
:101D400000000000641D0008000000201C000000CE
:101D500028010008801D00081C0000200C0B00005A
:101D60004401000801000000100000000000000015
:101D70000024F4000000000000000000000000004B
:04000005080000ED02
:00000001FF
