:020000040800F2
:10000000700400209D010008DF0E0008790C000834
:10001000DD0E0008D50200089D1000080000000059
:10002000000000000000000000000000E70E0008D3
:10003000D702000800000000E50E0008E90E0008E5
:10004000B7010008B7010008B7010008B7010008B0
:10005000B7010008B7010008B7010008B7010008A0
:10006000B7010008B7010008B7010008B701000890
:10007000B7010008B7010008B7010008B701000880
:10008000B7010008B7010008B7010008B701000870
:10009000B7010008B7010008B7010008B701000860
:1000A000B7010008B7010008B7010008B701000850
:1000B000B7010008B7010008B7010008B701000840
:1000C000B7010008B7010008B7010008B701000830
:1000D000B7010008B7010008B7010008B701000820
:1000E000B7010008B7010008B7010008B701000810
:1000F000B7010008B7010008B7010008B701000800
:10010000B7010008B7010008B7010008B7010008EF
:10011000B7010008B7010008B7010008B7010008DF
:10012000B7010008B7010008B7010008B7010008CF
:10013000B7010008B7010008B7010008B7010008BF
:10014000B7010008B7010008B7010008B7010008AF
:10015000B7010008B7010008B7010008B70100089F
:10016000B7010008B7010008B7010008B70100088F
:10017000B7010008B7010008B7010008000000003F
:10018000B7010008B7010008DFF80CD000F090F8C4
:10019000004800474D1300087004002006488047BF
:1001A00006480047FEE7FEE7FEE7FEE7FEE7FEE75C
:1001B000FEE7FEE7FEE7FEE7810F00088901000881
:1001C0002DE9F05F0546002092469B46884606468C
:1001D000814640241BE0284641464746224600F01F
:1001E00057F853465A46C01A914110D31146184643
:1001F000224600F03EF82D1A67EB01084F462246D2
:100200000120002100F035F817EB00094E41201EB7
:10021000A4F10104DFDC484631462A464346BDE8E6
:10022000F09FD2B201E000F8012B491EFBD27047CB
:100230000022F6E710B513460A4604461946FFF7B2
:10024000F0FF204610BD30B50B46014600202022AD
:10025000012409E021FA02F59D4205D303FA02F5D3
:10026000491B04FA02F52844151EA2F10102F1DC33
:1002700030BD202A04DB203A00FA02F1002070474A
:100280009140C2F1200320FA03F3194390407047D4
:10029000202A04DB203A21FA02F00021704721FADB
:1002A00002F3D040C2F12002914008431946704742
:1002B000064C074D06E0E06840F0010394E80700B3
:1002C00098471034AC42F6D3FFF762FF841300085E
:1002D000A4130008FEE7704772B6FEE72DE9F84F59
:1002E000DFF8BCA10022012503264FF00F090AF117
:1002F000040BAAF1040E00BF0B6805FA02F42340B8
:10030000A34270D10F7907F00307012F01D0022F0C
:1003100016D187684FEA420806FA08FC27EA0C075C
:10032000D1F80CC00CFA08FC4CEA070CC0F808C065
:100330004768A7430C79C4F3001494403C434460DD
:100340000C79E443A4070AD0C4684FEA420C06FAC9
:100350000CF7BC438F6807FA0CF72743C7600C798A
:1003600004F00304022C12D1D40800EB840CDCF856
:1003700020405707FF0E09FA07F824EA0804D1F8CD
:10038000108008FA07F848EA0408CCF820800468CE
:100390004FEA420C06FA0CF7BC430F7907F003074B
:1003A00007FA0CF7274307604C6814F4403F70D0FD
:1003B0003C4C276847F480472760246822F00307F5
:1003C00004F480440094384C07EB040CDCF8084833
:1003D00097074FEA177809FA08F7BC43334FB8423A
:1003E00002D1002724E054E0314FB84201D1012767
:1003F0001EE0304FB84201D1022719E02E4FB8421B
:1004000001D1032714E02D4FB84201D104270FE09A
:100410002B4FB84201D105270AE02A4FB84201D13B
:10042000062705E0284FB84201D1072700E008273A
:1004300007FA08F72743CCF80878DAF8004057465F
:10044000D1F804C09C435FEACC2C00D51C433C602F
:10045000DBF800405F46D1F804C09C435FEA8C2C77
:1004600000D51C433C60DEF800407746D1F804C05C
:100470009C435FEA8C3C00D51C433C60084F083F1E
:100480003C68D1F804C09C435FEACC3C00D51C43D7
:100490003C60521C102AFFF42FAFBDE8F88F00001B
:1004A000083C014044380240003001400000024056
:1004B0000004024000080240000C0240001002400C
:1004C0000014024000180240001C02400AB1816181
:1004D00070470904FBE7000001488068704700008E
:1004E0000000002002488168027811448160704752
:1004F000000000200B4810B5016841F40071016054
:10050000016841F480610160016841F4807101601B
:10051000032000F061F80F2000F006F800F024F846
:10052000002010BD003C024070B50D4D04464FF454
:100530007A712878B1FBF0F00A490968B1FBF0F054
:1005400000F01EFB48B9102C07D200222146501E95
:1005500000F022F800206C6070BD012070BD00002A
:10056000000000200C0000200A4808B5016841F492
:1005700080410160006800F4804000900548001F41
:10058000016841F080510160006800F080500090E7
:1005900008BD000044380240F0B40E4B1B680C4606
:1005A000C3F30223C3F10705042D00D90425191D47
:1005B000072901D2002300E0DB1E012606FA05F11F
:1005C000491E214099409E40761E16403143F0BCA2
:1005D00000F076BD0CED00E0064900F00702086867
:1005E0004FF6FF03184040EA0220034A1043086018
:1005F000704700000CED00E00000FA0570470000B5
:100600002DE9F0470E46050065D0DFF81481D8F8D3
:100610000000F7B200F00700B04207D288F800707F
:10062000D8F8000000F00700B04254D128683D4CD3
:10063000810712D5400703D5206840F4E0502060C0
:100640002878000703D5206840F4604020602068C7
:10065000A96820F0F000084320602878C0072DD05A
:10066000304968680839012812D0022813D00328BD
:1006700011D00968890700292DDA216821F00301CA
:1006800001432160FFF728FF814641F2883A0EE0DE
:1006900009688903EFE709688901ECE7FFF71CFFA8
:1006A000A0EB0901514502D90320BDE8F08720687D
:1006B000696800F00C00B0EB810FEFD1D8F80010A2
:1006C000404601F00701B14207D90770006800F009
:1006D0000700B04201D00120E7E72878400705D5A0
:1006E0002068E96820F4E05008432060287800077B
:1006F00006D52068296920F4604040EAC1002060E6
:1007000000F03EF82168084AC1F30311515CC8406B
:100710000649086006480068FFF706FF0020C4E7A6
:10072000003C0240083802406C1300080C00002016
:100730000400002001490120C864704700004742BE
:100740000448054900680968044AC1F38221515CE4
:10075000C84070470C000020083802407C13000895
:100760000448054900680968044AC1F34231515CF4
:10077000C84070470C000020083802407C13000875
:10078000154810B5006810F00C02144813D0411041
:10079000042A0FD0082A0ED10F4C241F2268236888
:1007A00002F03F025B0207D52068C0F38810A0FB6F
:1007B000010106E0084610BD2168C1F38811A1FBC4
:1007C00000010023FFF7FCFC2168C1F30141491C33
:1007D0004900B0FBF1F010BD083802400024F400DD
:1007E000054810B50068000605D5FFF707FF024968
:1007F0008020891C087010BD0C3802402DE9F84F8C
:1008000004006ED02078DFF84C93C007A9F10405EE
:100810004AD009F104000168C1F38101012908D01F
:100820000068C0F3810002280AD1D9F80000400214
:1008300006D52868800337D560680028E1D033E00A
:100840006068B0F5803F10D0B0F5A02F286810D0B8
:1008500020F480302860286820F4802028606068B8
:10086000A8B1FFF739FE06460DE0286840F4803055
:10087000F4E740F480202860F7E700BFFFF72CFE84
:10088000801B642873D828688003F7D50CE0FFF735
:1008900023FE064605E000BFFFF71EFE801B64280E
:1008A000F0D828688003F7D42078DFF8AC8280077E
:1008B0004FF0000A3ED5A748001D016811F00C0F4B
:1008C00008D00068C0F3810002280BD1D9F80000DD
:1008D000400207D42868800716D5E068012800D1B7
:1008E00012E033E1E068B8B10120C8F80000FFF77A
:1008F000F3FD064605E000BFFFF7EEFD801B022872
:10090000C0D828688007F7D52868216920F0F8004A
:1009100040EAC10028600DE0C8F800A0FFF7DCFD48
:10092000064604E0FFF7D8FD801B02281FD8286880
:100930008007F7D42078000722D5864F8748616961
:10094000703771B101210160FFF7C6FD064604E072
:10095000FFF7C2FD801B022809D838688007F7D549
:100960000EE0C0F800A0FFF7B7FD064605E082E004
:10097000FFF7B2FD801B02287DD838688007F7D4C6
:100980002078400768D5DFF8CCB100270BF13C0B8D
:10099000DBF80000C0000BD4DBF8001041F0805100
:1009A000CBF80010DBF80000012700F08050009029
:1009B0006B4E3068C00510D4306840F480703060F1
:1009C000FFF78AFD009005E0FFF786FD0099401AC9
:1009D000022850D83068C005F6D55E4EA0686C3647
:1009E00001280FD00528306810D020F001003060B9
:1009F000306820F004003060A068B8B1FFF76CFDEB
:100A000000900FE0306840F00100F4E740F004008F
:100A10003060F7E7FFF760FD0099411A41F2883036
:100A2000814266D830688007F4D50EE0FFF754FDA8
:100A3000009007E0FFF750FD0099411A41F288301D
:100A4000814256D830688007F4D42FB1DBF800100B
:100A500021F08051CBF80010A069C8B33D49091DB1
:100A60000968C1F3810102294AD00228504607D003
:100A7000C8F8600000E03CE0FFF72EFD04463BE0D4
:100A80004746C8F86000FFF727FD064605E000BFAF
:100A9000FFF722FD801B02282BD828688001F7D49D
:100AA000D4E907010843A16A2E4A490802EB014133
:100AB000626A41EA8211084394F82C1040EA01610D
:100AC000C9F8001001203866FFF706FD044606E06D
:100AD0003EE000BFFFF700FD001B022809D8286890
:100AE0008001F7D534E000BFFFF7F6FC001B0228B9
:100AF00002D90320BDE8F88F28688001F4D427E0EC
:100B00000128F7D0D9F80000E26900F48001914291
:100B10001CD1226A00F03F01914217D147F6C07103
:100B2000626A0140B1EB821F10D1A26A4FF0FF331D
:100B300000F4403103EB5202B1EB024F06D194F8BE
:100B40002C1000F07060B0EB016F01D00120D1E7F4
:100B50000020CFE70438024000004742800E4742A1
:100B6000007000400000FFFF4FF0E02104280869FA
:100B700003D020F004000861704740F00400FAE759
:100B800010B5401EB0F1807F01D3012010BD4FF0A1
:100B9000E02460610F21601700F092FA0020A0614C
:100BA00007202061002010BD70B5040004D094F827
:100BB0003D00002510B106E0012070BD84F83C50D6
:100BC000204600F023F8242084F83D002068C16806
:100BD00021F40051C160204600F0DAF92068016973
:100BE00021F4904101612068416921F02A014161AD
:100BF0002068C16841F40051C1602564202084F858
:100C00003D0084F83E00002070BD000010B586B0A5
:100C1000044614216846FFF70BFB144920688842FC
:100C200021D113480021026842F0100202600068DE
:100C300000F0100005900E481438026842F00102DE
:100C40000260006800F0010005904FF4C060009061
:100C50000220CDE90101032003900720049069469A
:100C60000448FFF73BFB06B010BD00000010014038
:100C70004438024000000240FEE7000070B50D4815
:100C8000016821F440710160016801600A4C012093
:100C9000C4F89402052004F5257400F0F3FA54F822
:100CA000840CC5B200202060052000F0EBFA284635
:100CB00070BD000000040240008040422DE9F04772
:100CC000164C002601278146C4F89072144801682A
:100CD00021F440710160016801603546B04676003C
:100CE000C4F89472052000F0CDFAD4F81002C4F8CC
:100CF00094823043C6B2052000F0C4FA6D1CEDB2F8
:100D0000082DECD3B9F1000F05D0002000F00AF84F
:100D10003046BDE8F0870120F8E70000008040423F
:100D2000000402400D4910B50A6822F440720A60BE
:100D30000A6842F480720A60094CC4F890020120EB
:100D4000C4F89402052004F5247400F09BFA0020F6
:100D50006060BDE81040052000F094BA0004024035
:100D6000008040422DE9F04105461148016821F418
:100D700040710160016841F48071016000240D4EF2
:100D800027464FF00108E809C6F890026806050EEC
:100D9000C6F89482052000F075FAC6F89472052012
:100DA00000F070FA641CE4B2082CECD3BDE8F081CA
:100DB000000402400080404270B50D48016821F4F3
:100DC00040710160016841F480710160094C0120AB
:100DD000C4F89002C4F89402052004F5247400F0CD
:100DE00051FA00252560052000F04CFA656070BDC1
:100DF000000402400080404270B50D48016821F4B3
:100E000040710160016841F480710160094C00206B
:100E1000C4F890020125C4F89452052004F5247406
:100E200000F030FA2560BDE87040052000F02ABAD5
:100E3000000402400080404210B586B0142168468C
:100E4000FFF7F6F91548016841F08001016001687B
:100E500001F080010591016841F001010160016824
:100E600001F001010591016841F002010160006893
:100E70000B4C00F002000590002230212046FFF7C5
:100E800025FB30200121CDE900010220CDE902102F
:100E900069462046FFF722FA06B010BD30380240FE
:100EA000000402400C4810B50A4901604FF4E131DA
:100EB0004160002181600C22C160C0E9041281619F
:100EC000C161FFF771FE002803D0BDE81040FFF7B5
:100ED00003BA10BD0010014018000020FEE7FFF724
:100EE0007FFCFEE770477047FFF7FCBA30B593B060
:100EF00030216846FFF79CF914210CA8FFF798F9F8
:100F00001D480025016841F080510160006800F033
:100F1000805011901948016841F4804101600068D7
:100F2000022400F480401190012000900004019000
:100F30008001CDE9064008AA0420A82182E8130018
:100F40000B906846FFF75AFC08B172B6FEE70CA991
:100F50000F2081E831004FF4A0500F904FF48050E3
:100F6000109005210CA8FFF74BFB08B172B6FEE705
:100F7000FFF7E0FB13B030BD403802400070004086
:100F80000248016841F470010160704788ED00E09B
:100F900070B5044600680169E26821F440511143CC
:100FA00001612169A068E26908436169114308434E
:100FB0002168CA6849F20C639A430243CA602068F8
:100FC0004169A26921F440711143416131492068AE
:100FD000884202D03049884202D1FFF7C1FB01E0CC
:100FE000FFF7AEFBE2690023192164253226B2F532
:100FF000004F626828D0A0FB0101930F9200FFF719
:10100000DFF80146B0FBF5F06FF01802504301EB3A
:10101000800006EB0010B0FBF5F000F0F002B1FB31
:10102000F5F002EB0012B1FBF5F06FF01803584336
:1010300001EB800006EB0010B0FBF5F000F00F00B4
:1010400021681044886070BDA0FB010192185B41CB
:10105000FFF7B6F80146B0FBF5F00201B1FBF5F081
:101060006FF01803584301EB800006EBC000B0FBA3
:10107000F5F000F0F80002EB4002B1FBF5F0584348
:1010800001EB800006EBC000B0FBF5F000F00700BC
:10109000D6E700000010014000140140FEE7000008
:1010A0000FB4054B10B503A9044A029800F028F8C4
:1010B00010BC5DF814FB0000B912000814000020F9
:1010C0000907090E002804DB00F1E02080F8001475
:1010D000704700F00F0000F1E02080F8141D704709
:1010E00002E008C8121F08C1002AFAD170477047F1
:1010F000002001E001C1121F002AFBD1704700004F
:101100002DE9FF4F89B09B460446002506E02528BF
:101110000BD05A460B999047641C6D1C2078002810
:10112000F5D10DB02846BDE8F08F0027B846012262
:10113000474900E0074314F8013F203B02FA03F05F
:101140000842F7D120782E2819D114F8010F47F062
:1011500004072A280ED06FF02F022078A0F130016A
:1011600009290CD808EB880102EB410100EB0108CA
:10117000641CF2E70A98641C50F8048B0A902078EB
:101180000028CED0642808D0692806D075281ED043
:101190005A460B9990476D1C58E00A994FF00A097E
:1011A00001C90A91002802DA40422D2102E03905E6
:1011B00004D52B218DF82010012103E0F90704D07C
:1011C0002021F7E78A4608AE0DE00021FAE70A99E8
:1011D0004FF00A0901C90A91F7E74946FFF733F8CA
:1011E000303106F8011D0028F7D1ADEB060000F103
:1011F0002009780701D44FF00108C84502DDA8EBAB
:10120000090000E000208046002706E008A85A46B2
:10121000C05D0B9990476D1C7F1C5745F6DB04E0C1
:1012200030205A460B9990476D1CB8F10001A8F187
:101230000108F5DC05E016F8010B5A460B999047BA
:101240006D1CB9F10001A9F10109F4DC641C65E72A
:101250000928010010B504460420FFF785FC014869
:10126000046010BD1000002070B5054600244FF446
:101270007A7603E0304600F005F8641CAC42F9D3FE
:1012800070BD000070B54FF0E02400226569094987
:10129000A36909684843A1699942FCD002D2A3EB33
:1012A000010302E0A5EB010633441A440B468242D7
:1012B000F1D370BD1000002003490A685206FCD526
:1012C000C2B24A6070470000001001403EB5FFF70F
:1012D00073FDE820FFF746FDFFF7D0FC0220FFF783
:1012E00041FDFFF7CBFCFFF767FDE920FFF73AFD73
:1012F000FFF7C4FC0F4C00250120FFF7DFFC605511
:101300006D1CEDB2052DF7D30020FFF7D7FC6071FF
:10131000FFF772FDE078627921798DE80700A37804
:101320006278217804A0FFF7BBFEBDE83E40C820EC
:10133000FFF79ABF5C000020256420256420256407
:101340002025642025642025640D0A00FFF7D2F8CB
:10135000FFF7CCFDFFF770FDFFF7A4FD00F003F8E9
:10136000FFF7B4FFFCE7A820FFF774BF0000000000
:101370000000000001020304060708090000000045
:1013800001020304A413000800000020180000005C
:10139000E0100008BC1300081800002058040000EA
:1013A000F010000801000000100000000000000024
:0C13B0000024F400000000000000000019
:040000050800018965
:00000001FF
