:020000040800F2
:10300000E0080020013100088F660008F155000833
:103010008D66000897340008556A0008000000001B
:10302000000000000000000000000000BD66000875
:10303000593600080000000095660008ED6600089B
:103040001B3100081B3100081B3100081B31000830
:103050001B3100081B3100081B3100081B31000820
:103060001B3100081B3100081B3100081B31000810
:103070001B3100081B3100081B3100081B31000800
:103080001B3100081B3100081B3100081B310008F0
:103090001B3100081B3100081B3100081B310008E0
:1030A0001B3100081B3100081B3100081B310008D0
:1030B0001B3100081B3100081B31000801560008B5
:1030C000F55500081B3100081B3100081B310008B2
:1030D0001B3100081B3100081B3100081B310008A0
:1030E0001B3100081B3100081B310008DFF80CD031
:1030F00000F01AF90048004761700008E00800205D
:103100000648804706480047FEE7FEE7FEE7FEE781
:10311000FEE7FEE7FEE7FEE7FEE7FEE76D67000875
:10312000ED300008202A04DB203A21FA02F00021C9
:10313000704721FA02F3D040C2F1200291400843C7
:1031400019467047D2B201E000F8012B491EFBD2AC
:1031500070470022F6E710B513460A4604461946A2
:10316000FFF7F0FF204610BD80EA010210B502F023
:103170000043400022D04A001FD0010E01EB126133
:10318000C0F35600C2F3560240F4000042F40002BD
:10319000A0FB022000047F39140400D0401C50EA38
:1031A000124001D44000491EC2B20C0604EBD010FC
:1031B000401C4008802A02D003E0002010BD20F00F
:1031C0000100002900DA0020184310BD30B480EA65
:1031D000010202F0004530F0004221F0004013D01F
:1031E00090B1C30DD40DC2F31601C0F31600E41A5A
:1031F00041F4000140F400027D34914201D3641C8B
:1032000000E04900002C02DA30BC002070474FF487
:1032100000000023914201D3891A034340084FEA7A
:103220004101F7D151B1914202D14FF0004105E087
:1032300002D24FF0010101E06FF0010103EBC45035
:10324000284430BC00F038B8C10F80EAE070084470
:10325000CA079623002100F038B800F0004220F0A1
:103260000040C10DC0F3160040F400007F2901DAD0
:1032700000207047962903DCC1F19601C84001E0A7
:1032800096398840002AF4D04042704730B50B464A
:10329000014600202022012409E021FA02F59D4286
:1032A00005D303FA02F5491B04FA02F52844151E5A
:1032B000A2F10102F1DC30BD0029A8BF7047401C1B
:1032C000490008BF20F00100704710B4B0FA80FC3C
:1032D00000FA0CF050EA010404BF10BC704749B179
:1032E000CCF1200421FA04F411FA0CF118BF0121E9
:1032F00021430843A3EB0C01CB1D4FEA00614FEAC9
:10330000102042BF002010BC704700EBC350104497
:103310000029A4BF10BC7047401C490008BF20F022
:10332000010010BC70470000064C074D06E0E06845
:1033300040F0010394E8070098471034AC42F6D3FC
:10334000FFF7D8FEEC7300080C74000870B5044653
:1033500020688168C943C90716D1816821F001013D
:10336000816000F08DFF054609E000F089FF401BF9
:10337000022804D920688068C043C00706D02068AE
:103380008068C043C007F0D0002070BDA06A40F044
:103390001000A062E06A40F00100E062012070BD10
:1033A00010B50146486A826A12F0500F05D0006AD3
:1033B000026BBDE8104008461047816A41F4007175
:1033C000816201688968C1F3424107290CD1017B00
:1033D00051B9816A21F480718162816AC90403D480
:1033E000816A41F00101816200F0E0FA10BD10B580
:1033F000406A816A41F040018162C16A41F0040182
:10340000C16200F0D5FA10BD10B5406A00F0CFFAE5
:1034100010BD0000F8B504460026009620688168BB
:10342000C943C9072FD0816841F001018160174865
:1034300017490068B0FBF1F0009002E00098401ED0
:10344000009000980028F9D100F01AFF054615E019
:1034500000F016FF401B022810D920688068C04386
:10346000C0070BD0A06A40F01000A062E06A40F0F4
:103470000100E06284F824600120F8BD20688068C3
:10348000C043C007E4D10020F8BD00000C000020BC
:1034900040420F007047FEE72DE9F05F03F0F6FDB4
:1034A0000025DFF88CB0DFF88C904FF4B47A0BF184
:1034B000E008002405EB45000BEBC00608EB800795
:1034C00036F8241039F82520504603F035FD27F84A
:1034D0001400641CE4B2062CF2D36D1C6DB2062DF0
:1034E000E7DB0021144C09EB810082780F2A05D21A
:1034F000C0780F2802D20020605412E00022012080
:1035000001EB410308EB830333F9105033F91260E8
:10351000B54200DA42B2401CC0B20628F4D3521CB5
:103520006254491CC9B20629DDD3BDE8F09F0000F2
:10353000A003002030020020250000200148007870
:1035400003F010BA180000202DE9F041DFF8CC801C
:1035500098F8000003F006FA98F800000025304CB7
:10356000304F314E04283BD302D12178012902D0BB
:1035700005280DD00FE0012002F00CFF2570E27845
:10358000A178607803F028FE022088F8000027E088
:103590003978012907D00B2802D8F17801290DD0FC
:1035A0000C2819D01CE0012002F0F4FE3D70787860
:1035B00003F00EFE032088F8000011E0012002F065
:1035C000E9FEF57098F80000801FC0B203F004FC1B
:1035D000012088F8000003E003F018FB88F8005091
:1035E00098F80000012808D002280DD0032812D135
:1035F0007878BDE8F04103F027BBB2787178307875
:10360000BDE8F041FFF748BFE278A1786078BDE8F7
:10361000F04103F031BBBDE8F0810000180000204C
:103620002B000020B00000202100002030B590F8D1
:1036300040500124AC40C56B6C6004686360436813
:10364000102B04D0036899600068C26030BD036825
:103650009A600068C16030BD704772B6FEE7000036
:1036600006490020C8610648016941F00401016172
:10367000016941F040010161704700001002002023
:1036800000200240064A0021D16106490A6942F041
:1036900002020A614861086940F040000861704711
:1036A0001002002000200240044B0022DA61044A8C
:1036B000136943F001031361018070471002002079
:1036C0000020024000201449CA68D306134A04D5DA
:1036D000D06940F00200D0611020CB685B0705D5AF
:1036E000D36943F00103D36140F00400CB69DB07E9
:1036F00007D0D36943F00403D361CA6922F0010201
:10370000CA61A0F58072013A01D0C8607047C869EB
:1037100020F00100C8617047002002401002002024
:1037200070B5044600F0ACFD0546114E09E0601C82
:1037300007D024B100F0A4FD401BA04201D9032012
:1037400070BDF068C007F2D1F068800601D5202076
:10375000F060F068C00605D4F069C00702D1F068D7
:10376000400703D5FFF7AEFF012070BD002070BDFC
:103770000020024010B503F0F5FB801C00210B4B2C
:10378000143001EB8102046843F8224003EB82020B
:10379000446854608468946004691461C468D460A7
:1037A000491CC9B20629EBD310BD00003800002027
:1037B000F8B504460026009694F82400012809D0A4
:1037C000012084F824002046FFF7C0FD074638009A
:1037D00002D060E00220F8BDA06A20F4885040F0DA
:1037E0000200A062022001F033F92D490968B1FB03
:1037F000F0F04000009002E00098401E0090009819
:103800000028F9D12046FFF705FE2068816841F0C5
:103810000801816000F034FD054612E000F030FD43
:10382000401B0A280DD920688068000709D5A06AC6
:1038300020F0020040F01000A06284F82460012013
:10384000F8BD206880680007E8D42068816841F0EE
:103850000401816000F014FD054612E000F010FD47
:10386000401B0A280DD920688068400709D5A06A46
:1038700020F0020040F01000A06284F824600120D3
:10388000F8BD206880684007E8D4A06A20F00200F4
:1038900040F00100A06284F824603846F8BD0000C2
:1038A0000C000020F8B500230025009590F8242096
:1038B000012A12D0012280F824204A681F26072AF4
:1038C0000DD20468676B521E02EB82029640B7432A
:1038D0000E689640374367631AE00220F8BD0D2A50
:1038E0000BD20468276BD21F02EB82029640B743CB
:1038F0000E689640374327630AE00468E76A0D3A8A
:1039000002EB82029640B7430E6896403743E76267
:103910000A6807260A2A0BD30468E7680A3A02EB0A
:1039200042029640B7438E6896403743E76009E00D
:103930000468276902EB42029640B7438E689640BE
:10394000374327610A68102A01D0112A23D1144C69
:103950000268A2421AD1946824021CD4946844F4E8
:10396000000494600968102915D10E490E4A0968AF
:10397000B1FBF2F101EB81014900009102E00099F5
:10398000491E009100990029F9D104E0816A41F0B3
:1039900020018162012380F824501846F8BD000000
:1039A000002401400C00002040420F007047704787
:1039B000704700002DE9F041044600270025002C47
:1039C00003D0A06A002618B108E00120BDE8F0810C
:1039D000E66284F82460204600F07AF82046FFF77B
:1039E000B5FCA16A01F01001014305D0A06A40F0C6
:1039F0001000A0620120E9E7A16A21F4885141F09A
:103A00000201A1626268E169237B0A4347EA43013C
:103A10000A43A1684FF48077B94208D0012906D043
:103A2000002194F814C0BCF1010F02D00AE039461D
:103A3000F7E7F3B1A36A43F02003A362E36A43F01C
:103A40000103E3622368D3F804C02CF4694C4CEA08
:103A5000010CC3F804C021688B68DFF86CC003EA6E
:103A60000C0313438B60A168B94209D0012907D028
:103A700009E0A3695B1E41EA433141F40061E1E7DB
:103A8000218A491E0D052168CB6A23F470032B435C
:103A9000CB62216889680D4B1940914207D1E662DB
:103AA000A16A21F0020141F00101A1628EE7A06A42
:103AB00020F0020040F01000A062E06A40F0010037
:103AC000E062012082E70000FDF7E1FFFE0E1FFF2C
:103AD00070B586B0064600240294039404940594BD
:103AE0001A49306888422ED11949886940F400701B
:103AF0008861886900F400700190886940F00400D2
:103B00008861886900F0040001903F200290032042
:103B1000039002A90F4800F0ADFA104D0E4828603E
:103B20006C60AC608020E860800028618000686183
:103B30002020A861EC61284600F0F2F808B1FFF7F8
:103B40008CFD35626E6206B070BD0000002401403D
:103B5000001002400008014008000240EC00002074
:103B60002DE9F047044689469246DFF80081206837
:103B70003F4F08F10406404501D0B84207D13068F4
:103B800010F4702F03D001252846BDE8F08794F883
:103B9000240001280BD0012084F824002046FFF7E0
:103BA00039FC0546002125B184F82410ECE70220F9
:103BB000EBE7A06A40F60162904340F48070A06297
:103BC0002068B84218D1326812F4702F14D0A26A5B
:103BD00042F48012A2623068400505D5A06A20F444
:103BE000005040F48050A062A06AC00412D5E06A80
:103BF00020F00600E0620EE0A26A22F48012A262C7
:103C000040684005F0D5A06A20F4005040F4805090
:103C1000A062E9E7E16284F82410216A154888620D
:103C2000216A1548C862216A1448086321686FF048
:103C3000020008602068816841F480718160216819
:103C400053464C314A46206A00F09CF8206881684F
:103C5000C1F34241072904D0816841F48011816099
:103C600092E7816841F4A00181608DE70024014062
:103C700000280140A133000809340008EF33000890
:103C800010B5002490F82110022903D0042181638B
:103C900001243DE001680A6822F00E020A60016812
:103CA0000A6822F001020A601A4A0168914201D1B1
:103CB000012121E0174A1432914201D110211BE069
:103CC000144A2832914201D1891515E0114A3C323B
:103CD000914201D189140FE00E4A5032914202D133
:103CE0004FF4803108E00B4A6432914202D14FF424
:103CF000801101E04FF08071064A083A51600121BD
:103D000080F82110002180F82010416B01B1884714
:103D1000204610BD0800024090F8210070470000C6
:103D200030B5002827D0001D144A50F8041C142375
:103D30000A44B2FBF3F29200C263114A8263022288
:103D400042770A6843F6F0739A43D0E9003423437C
:103D5000D0E902452C4323430469234344692343A8
:103D60008469234313430B6000214163012242779E
:103D70000177002030BD012030BD0000F8FFFDBFFD
:103D80000000024070B50446002594F82000012888
:103D90000CD0012084F8200094F821600020012E2E
:103DA00006D084F820000225284670BD022070BD90
:103DB000022684F82160A0632068066826F00106C8
:103DC00006602046FFF732FCE06A28B120680168EF
:103DD00041F00E01016009E02068016821F0040152
:103DE00001602068016841F00A01016020680168F3
:103DF00041F001010160D7E770B5044600F040FAD8
:103E00000546601C02D004480078044400F038FAEB
:103E1000401BA042FAD370BD000000202DE9F047FE
:103E200005460F464FF0010ADFF8908098F8180019
:103E300001280DD0012088F818002868204E4CF287
:103E40005039022807D04846FFF76AFC98B12FE0A6
:103E50000220BDE8F0874846FFF762FCF8B9012070
:103E6000FFF7FEFB4846FFF75BFC8246306920F017
:103E7000040030611CE04FF0FF303860AC6811E0A6
:103E80002046FFF7FFFB4846FFF74AFC82463069B1
:103E900020F0020030615FEA0A0001D03C6007E0D8
:103EA00004F58064D5E9020100EB8120A042E7D847
:103EB000002088F818005046CBE7000010020020D0
:103EC000002002400348016941F0800101610020A7
:103ED00070470000002002402DE9F05F0746884649
:103EE00015461E460024DFF8749099F81800012842
:103EF00009D0012089F818004CF2503B5846FFF7D2
:103F00000FFC18B126E00220BDE8F09F012F05D07C
:103F1000022F05D00427DFF848A019E00127FAE7AF
:103F20000227F8E7220128463146FFF7FBF881B265
:103F300008EB4400FFF7B8FB5846FFF7F1FBDAF84F
:103F4000101021F00101CAF8101018B9641CE4B275
:103F5000BC42E7D3002189F81810D5E710020020F1
:103F600000200240002006490A69120607D5054ACA
:103F70004A60054A4A600969090600D50120704770
:103F80000020024023016745AB89EFCD2DE9F043C6
:103F90000022DFF8C8804FF00F0C5AE00123934055
:103FA0000B40CBB322F0030404EB0805AC68960782
:103FB000370F0CFA07F606EA0409294CA04201D192
:103FC00000240FE0274CA04201D101240AE0264C36
:103FD000A04201D1022405E0244CA04201D10324D7
:103FE00000E00424BC404C4512D1AC68B443AC6042
:103FF0001F4C25689D432560241D25689D43256031
:10400000241D25689D432560241D25689D4325604A
:10401000FF2B02D8044602E019E000F1040402D8A4
:104020004FEA820503E0A2F108054FEA85052668FC
:104030000CFA05F726EA07064FF0040707FA05F71A
:1040400046EA07062660C46824EA0304C46002F155
:10405000010231FA02F3A1D1BDE8F0830000014072
:1040600000080140000C0140001001400014014014
:10407000000401402DE9F84F00240023DFF8C4912B
:104080004FF00F0809F1040A0AF1040B0BF1040EBA
:10409000D1E00127A7403A40BA4275D1DFF8A8C164
:1040A0004D68A5EB0C0665452BD00DDC032D34D0F7
:1040B00005DC35B3012D19D0022D2FD11BE0112DB8
:1040C00016D0122D2AD119E0B6F5881F19D006DCBA
:1040D000B6F5803F15D0B6F5801F1FD111E0B6F5BB
:1040E000001F0ED0B6F5041F18D10AE0CB6815E00A
:1040F000CB681B1D12E0CB6808330FE0CB680C3394
:104100000CE08B6823B1012B04D00823476105E044
:10411000042303E00823076100E00023FF2A01D8FD
:10412000054601E000F1040502D84FEA840603E0E9
:10413000A4F108064FEA86062F6808FA06FC27EA6B
:104140000C0703FA06F647EA06072F604D68ED00F4
:1041500070D53E4DAE6946F00106AE61AD6905F021
:10416000010500953A4D24F003067719BE68A507AE
:104170002D0F08FA05FC26EA0C06DFF8D8C06045CA
:1041800003D14FF0000C17E054E0DFF8CCC06045DD
:1041900002D14FF0010C0FE0DFF8C0C0604502D142
:1041A0004FF0020C08E0DFF8B8C0604502D14FF0D4
:1041B000030C01E04FF0040C0CFA05FC4CEA060C71
:1041C000C7F808C04D68ED0305D5D9F80050154370
:1041D000C9F8005004E0D9F800509543C9F80050E0
:1041E0004D68AD0305D5DAF800501543CAF8005004
:1041F00004E0DAF800509543CAF800504D68ED022B
:1042000005D5DBF800501543CBF8005004E0DBF88F
:1042100000509543CBF800504D68AD0205D5DEF84F
:1042200000501543CEF8005004E0DEF800509543EE
:10423000CEF80050641C0A6832FA04F57FF429AF06
:10424000BDE8F88F0004014000001110001002408A
:104250000000014000080140000C01400010014036
:10426000001401408068084201D0012070470020FE
:104270007047002A01D0016170470904016170474D
:10428000014880687047000000000020704700006F
:10429000002907D001290CD101231A4605490648F7
:1042A00000F0B4BA0348012306224168024800F036
:1042B000E9BA7047180000203001002010B504460C
:1042C000002C12D0242084F83D002068016821F0E1
:1042D00001010160204600F02BFA002030342061FB
:1042E00060732060A073207310BD012010BD2DE904
:1042F000F041044621684A694E68002594F83E0062
:10430000D743FA050BD4F243D20508D401256FF444
:1043100080724A6121680A6842F400420A60B90565
:1043200008D4F143C90505D445F0020522686FF4AD
:1043300000715161790525D4F143C90522D4628DFC
:1043400094F83D10236B202808D13AB9212910D0C8
:1043500029290ED0282901D1212B0AD022686FF4F7
:104360008061516145F00405102806D0402804D032
:1043700008E0204601F002FE04E02068016841F4F4
:1043800000710160380508D4F043C00505D445F03C
:10439000080521686FF400604861002D07D0206C8B
:1043A000284320642046BDE8F04101F09BB9BDE8F8
:1043B000F0812DE9F041054600212B685A68EE6A2C
:1043C00095F83E4095F83D00102C05D0402C03D0C8
:1043D0002C6CECB35C696EE09F695969C9435FEA74
:1043E000C17C05D0B6F52A0F7CD0B6F12A4F79D022
:1043F000CE070AD1D643B60507D4284601F006F900
:104400002846BDE8F04101F089BC0E0707D4D64329
:10441000B60504D42846BDE8F04101F09EBB8E07E6
:1044200007D4D643B60504D42846BDE8F04101F0D0
:10443000A9BBFE43760723D45B681B0552D40B0649
:104440000BD4D3435B0508D44B0706D5284600E0C0
:104450002FE0BDE8F04101F021BB490775D4D143FD
:10446000890572D4212806D0402C6ED12846BDE89B
:10447000F04101F0A3BC2846BDE8F04101F0C9BA03
:104480005868000561D4480609D4D043400506D4D5
:10449000480704D52846BDE8F04101F051BA480765
:1044A00053D4D043800550D42846BDE8F04101F0F4
:1044B000C7B999695C69E443A6070AD4D643B6052F
:1044C00007D4286C00B199692846BDE8F04101F095
:1044D00030BDE10609D4D143890506D42846BDE89C
:1044E000F04100E031E001F0CBBD21280DD02928BA
:1044F0000BD060061FD4D04340051CD460071AD5EA
:104500002846BDE8F04101F0C2BC200609D4D043E2
:10451000400506D4600704D52846BDE8F04101F007
:10452000E6BC600711D4D04380050ED42846BDE810
:10453000F04101F0CEBC600707D4D043800504D41D
:104540002846BDE8F04101F094BCBDE8F08190F848
:104550003D10202901D002207047282180F83D100D
:1045600001680A68D20703D10A6842F001020A60B2
:1045700001680A6842F480620A600068416841F498
:10458000407141600020704701F068BD70B504467D
:10459000002C04D094F83D00002510B106E0012065
:1045A00070BD84F83C50204600F0E4F8242084F8E4
:1045B0003D002068016821F0010101602068016868
:1045C00041F4004101602068016821F4004101606C
:1045D00000F0E4FB4F4B6168994203D84E49884292
:1045E00003D304E04D49884201D2012070BD4C49FB
:1045F000B0FBF1F12268566826F03F060E43566084
:1046000062689A4201D8491C07E04FF49672514300
:104610004FF47A72B1FBF2F1491C2268166A26F057
:104620003F06314311626168994210D84900401E2B
:10463000B0FBF1F2521CC2F30B02042A01D2042097
:1046400022E0B0FBF1F0401CC0F30B001CE0A268BC
:10465000F2B301EBC10303EB0116431EB3FBF6F308
:104660005B1C43F480431B0549D092B301EBC102AC
:1046700002EB0111401EB0FBF1F0401CC0F30B0037
:1046800040F4804040F400402168CA694CF6FF7352
:104690009A431043C861D4E90710014320680268B7
:1046A00022F0C00211430160D4E9030101432068F4
:1046B000826848F2FF339A4311438160D4E90510C0
:1046C00001432068C26822F0FF021143C16001E08B
:1046D0000EE016E02068016841F0010101602564E8
:1046E000202084F83D00256384F83E50002070BDF2
:1046F00001EB4106431EB3FBF6F35B1CB3E701205D
:10470000C2E701EB4101401EB0FBF1F0401CC0F3D9
:104710000B00B7E7A086010080841E0000093D0061
:1047200040420F00FFF713BF704770477047704754
:1047300010B500680C49884215D10C48C16921F4B4
:104740000011C1610A4C81152046FFF71FFC61155D
:104750002046FFF71BFC1F2000F02AF9BDE810409F
:10476000202000F025B910BD005400400010024088
:10477000000C014010B586B0002102910391049114
:10478000059100681B49884232D11B4CA06940F05A
:104790000800A061A06900F0080001904FF440708B
:1047A0000290122003900320059002A91348FFF7FE
:1047B00061FC1349486840F0E06040F00200486046
:1047C000E06940F40010E061E06900F4001001903D
:1047D000002211461F2000F009F91F2000F0F9F80F
:1047E00000221146202000F001F9202000F0F1F80D
:1047F00006B010BD0054004000100240000C014003
:104800000000014002F05CBB02F076BB38B590F8C6
:104810003D502824AC4301D0022038BD61B15AB1CB
:1048200090F83C40012C09D0012480F83C400468F9
:104830002568ED0704D007E0012038BD022038BD0F
:10484000256845F0010525600468256825F40065A4
:1048500025602A2480F83D40202480F83E40002432
:10486000046441624285418D0185C36201684A69E1
:104870008A69009280F83C40486840F4E0604860F3
:10488000002038BD38B590F83D502824AC4301D005
:10489000022038BD61B15AB190F83C40012C09D0DA
:1048A000012480F83C4004682568ED0704D007E047
:1048B000012038BD022038BD256845F0010525607E
:1048C0000468256825F400652560292480F83D40AA
:1048D000202480F83E400024046441624285418DDA
:1048E0000185C36201684A698A69009280F83C4088
:1048F000486840F4E0604860002038BD02488168A4
:1049000002781144816070470000002010B507480C
:10491000016841F010010160032000F087F80F20CA
:1049200000F006F800F026F8002010BD002002403C
:1049300070B504460D4D4FF47A712878B1FBF0F054
:104940000B490968B1FBF0F000F050FC08B1012000
:1049500070BD102C07D200222146501E00F046F8F0
:104960006C60002070BD012070BD000000000020C0
:104970000C00002008B50C48816941F001018161FB
:10498000816901F001010091C16941F08051C1616B
:10499000C06900F0805000900449486820F0E06051
:1049A00040F00070486008BD001002400000014067
:1049B00000280DDB00F01F0201219140400980001A
:1049C00000F1E020C0F88011BFF34F8FBFF36F8F6D
:1049D0007047002809DB00F01F02012191404009C7
:1049E000800000F1E020C0F800117047F0B40D46DF
:1049F0000D4B1B68C3F30223C3F10704042C00D939
:104A00000424191D072901D2002300E0DB1E012622
:104A100006FA04F1491E294099409E40761E164030
:104A20003143F0BC02F028B80CED00E000F00701C3
:104A3000054A10684FF6FF03184040EA0120034979
:104A400008431060704700000CED00E00000FA051C
:104A500010B586B001462AA090E81C00C068CDE9D8
:104A60000334029205902AA0006801900020294C8E
:104A7000012922D0022939D010291CD1616822686D
:104A8000D20118D502A8C1F38342805CC90309D5BD
:104A9000616801AAC1F34041515C1F4AB2FBF1F1C8
:104AA000484301E01D4948436168490203D440007E
:104AB0000321B0FBF1F006B010BD216AC1F3012261
:104AC000012A03D1890701D5D003F4E7022A05D1D1
:104AD000616A890702D549F64040ECE7032AEAD12A
:104AE00021688903E7D54FF22440E4E700F066F936
:104AF0006168C1F38131491C4900B0FBF1F0DAE78C
:104B000002030405060708090A0B0C0D0E0F10100E
:104B1000010200000010024000127A0000093D006E
:104B20002DE9F8430446DFF8F8802078C0075FD00D
:104B30000027D8F81C00C0000BD4D8F81C0040F0A7
:104B40008050C8F81C00D8F81C0000F0805000907D
:104B50000127344D2868C00512D4286840F48070BD
:104B60002860FFF78DFB064607E0FFF789FB801BF7
:104B7000642802D90320BDE8F8832868C005F4D56D
:104B8000D8F8200000F4407010B3A18801F44071FF
:104B900081421DD0D8F8200020F440702249012223
:104BA0000A6000220A60C8F82000C00710D0FFF792
:104BB00067FB054641F2883606E0FFF761FB401BC4
:104BC000B04201D90320D6E7D8F820008007F4D5F9
:104BD000D8F82000616820F440700843C8F820002D
:104BE000012F05D1D8F81C0020F08050C8F81C0017
:104BF0002078800707D5D8F80400A16820F4404049
:104C00000843C8F804002078C00607D5D8F8040087
:104C1000E16820F480000843C8F804000020AAE7F7
:104C20000010024000700040400442427047000003
:104C30002DE9F04704460D46002C17D0DFF83081EF
:104C4000D8F8000000F00700A84211D2D8F8000000
:104C500020F007002843C8F80000D8F8000000F052
:104C60000700A84204D00120BDE8F0870120FBE73F
:104C70002068404E810712D5400703D5706840F484
:104C8000E06070602078000703D5706840F46050E1
:104C900070607068A16820F0F000084370602078B0
:104CA000C0072CD06068012806D0022809D03168DE
:104CB00089070BD40120D7E73168890306D4012086
:104CC000D2E73168890101D40120CDE7716821F074
:104CD000030101437160FFF7D3FA074641F28839B7
:104CE00006E0FFF7CDFAC01B484501D90320BBE71A
:104CF0007068616800F00C00B0EB810FF1D1D8F85A
:104D0000000000F00700A8420ED9D8F8000020F0FB
:104D100007002843C8F80000D8F8000000F007009A
:104D2000A84201D001209FE72078400705D5706890
:104D3000E16820F4E060084370602078000706D541
:104D40007068216920F4605040EAC100706000F092
:104D500045F87168084AC1F30311515CC84007491E
:104D6000086007480068FFF7E3FD00207CE70000CB
:104D70000020024000100240A07300080C00002038
:104D80000400002001490120C8647047000042422D
:104D900001480068704700000C00002000B5FFF7D4
:104DA000F7FF04494968044AC1F30221515CC84035
:104DB00000BD000000100240B073000800B5FFF70E
:104DC000E7FF04494968044AC1F3C221515CC84065
:104DD00000BD000000100240B073000885B014A0B0
:104DE00090E80E00C068CDE902230191049014A060
:104DF00000680090134B5968134801F00C02042A14
:104E000010D0082A0ED101A8C1F38342805CC903E7
:104E10000AD55968C1F340411DF801100A4A5043B0
:104E2000B0FBF1F005B0704708494843FAE70000CD
:104E300002030405060708090A0B0C0D0E0F1010DB
:104E4000010200000010024000127A0000093D003B
:104E500010B5044CA068000603D5FFF7E7FE8020DC
:104E6000A07210BD001002402DE9F84F0446002C3E
:104E70000ED02078D94DC0075ED06868C0F381009D
:104E800001280BD06868C0F38100022803D00CE031
:104E90000120BDE8F88F6868C00306D52868800344
:104EA0004AD56068A8BB0120F3E76068B0F5803F91
:104EB00011D0A8B1B0F5A02F1BD0286820F4803005
:104EC0002860286820F480202860606830B3FFF7ED
:104ED000D7F906461EE0286840F480302860F4E7E1
:104EE000286820F480302860286820F4802028601A
:104EF000EBE7286840F480202860286840F4803080
:104F00002860E2E7FFF7BCF9801B642802D9032080
:104F1000BFE711E028688003F4D50DE0FFF7B0F992
:104F2000064606E0FFF7ACF9801B642801D9032090
:104F3000AFE728688003F5D42078DFF8A4828007E3
:104F40004FF0010A4FF0000945D5686810F00C0FCA
:104F500007D06868C0F38100022812D16868C003D6
:104F60000FD42868800704D52069012801D00120CA
:104F70008FE72868616920F0F80040EAC1002860E6
:104F800029E02069B8B1C8F800A0FFF779F9064612
:104F900006E0FFF775F9801B022801D9032078E7A6
:104FA00028688007F5D52868616920F0F80040EA94
:104FB000C10028600FE0C8F80090FFF761F90646CD
:104FC00006E0FFF75DF9801B022801D9032060E7A6
:104FD00028688007F5D42078000726D58148A16984
:104FE00099B1C0F800A0FFF74BF9064606E0FFF7BD
:104FF00047F9801B022801D903204AE7686A800725
:10500000F5D5012001F048FB0FE0C0F80090FFF754
:1050100037F9064606E0FFF733F9801B022801D96D
:10502000032036E7686A8007F5D42078400773D5F7
:105030000026E869C00008D4E86940F08050E861C3
:10504000E86900F0805000900126DFF89CB1DBF8A1
:105050000000C00514D4DBF8000040F48070CBF8E9
:105060000000FFF70DF9074606E0FFF709F9C01B3E
:10507000642801D903200CE7DBF80000C005F4D553
:10508000E068012812D0B0B105281DD0286A20F0B0
:1050900001002862286A20F004002862E06841F2DA
:1050A000883B28B3FFF7ECF807461DE0286A40F07C
:1050B00001002862F2E7286A20F001002862286ACD
:1050C00020F004002862E9E7286A40F00400286222
:1050D000286A40F001002862E0E7FFF7D1F8C01B22
:1050E000584501D90320D4E6286A8007F5D50DE09C
:1050F000FFF7C6F8074606E0FFF7C2F8C01B5845A1
:1051000001D90320C5E6286A8007F5D4012E03D112
:10511000E86920F08050E861E069A0B36968C1F3F4
:105120008101022946D0022805D0C8F86090FFF717
:10513000A7F804463AE0C8F86090FFF7A1F80646E1
:1051400006E0FFF79DF8801B022801D90320A0E6A6
:1051500028688001F5D4206AB0F5803F05D16868E1
:10516000A16820F4003008436860D4E908010843CE
:10517000696821F4741108436860C8F860A0FFF7FB
:105180007FF8044607E026E0FFF77AF8001B0228C4
:1051900001D903207DE628688001F5D51BE0FFF7E3
:1051A0006FF8001B022801D9032072E628688001ED
:1051B000F5D410E001280CD06868226A00F4803130
:1051C000914204D1616A00F47010884203D001203A
:1051D0005FE601205DE600205BE600000010024073
:1051E00000004242800442420070004010B5401E60
:1051F000B0F1807F01D3012010BD4FF0E024606149
:105200000F21601701F038FC0020A0610720206109
:10521000002010BD10B590F83C20012A22D00122B8
:1052200080F83C20CA6800238C6822F44072224334
:105230004C6822F4806222430C6822F4006222430C
:105240000C6922F4805222434C6922F4005222431A
:10525000C96922F480420A4301684A6480F83C30FC
:10526000002010BD022010BD70B590F83C20012A2E
:1052700025D0012680F83C60022280F83D2002689B
:105280005468936824F070050C682C4354600D4CEE
:105290000268A24208D0B2F1804F05D00A4CA24267
:1052A00002D00A4CA24204D123F08003496819437A
:1052B00091603C30467000210170002070BD0220DA
:1052C00070BD0000002C01400004004000080040B8
:1052D00000B585B00021019102910391049100680D
:1052E0000B49884212D10B48816941F00401816168
:1052F000806900F0040000904FF4E060019002200B
:105300000290049001A90448FEF7B4FE05B000BD68
:10531000002C0140001002400008014070B5044616
:105320000D4694F83C0001280AD0012084F83C0086
:1053300042B1042A1AD0082A2DD00C2A53D13EE0BB
:10534000022070BD2946206801F056FA2068816964
:1053500041F0080181612068816921F004018161C7
:10536000206881692A69114381613CE029462068EF
:1053700001F072FA2068816941F40061816120685E
:10538000816921F480618161206881692A6941EA2B
:105390000221816127E02946206801F08FFA206808
:1053A000C16941F00801C1612068C16921F00401AF
:1053B000C1612068C1692A691143C16113E02946AE
:1053C000206801F0ABFA2068C16941F40061C16155
:1053D0002068C16921F48061C1612068C1692A69BE
:1053E00041EA0221C161002084F83C0070BD10B583
:1053F0000446002C03D094F83D0010B107E00120D2
:1054000010BD002084F83C00204600F015F8022072
:1054100084F83D00211D206801F0AAF901203D34E7
:1054200060726070A070E07020716071A071E071B6
:1054300020722070002010BD08B50068064988421F
:1054400008D10648816941F400618161806900F4F6
:105450000060009008BD0000002C014000100240D8
:1054600010B50446002909D004290AD008290BD018
:1054700094F8410001280AD0012010BD94F83E00A4
:10548000F8E794F83F00F5E794F84000F2E70220CF
:1054900039B3042928D0082929D084F841000122F1
:1054A000206801F09BF916492068884203D1426CBC
:1054B00042F4004242642068884208D0B0F1804F34
:1054C00005D01049884202D00F49884212D1816824
:1054D00001F00701062911D0016841F001010160C6
:1054E0000CE084F83E00DAE784F83F00D7E784F860
:1054F0004000D4E7016841F001010160002010BDC7
:10550000002C0140000400400008004070B5044633
:10551000002C04D094F83D00002510B106E00120D5
:1055200070BD84F83C50204600F022F8242084F816
:105530003D002068C16821F40051C160204601F09F
:105540002DFA2068016921F49041016120684169C8
:1055500021F02A0141612068C16841F40051C16015
:105560002564202084F83D0084F83E00002070BDB2
:1055700030B585B00024019402940394049400682B
:10558000174988422AD11748816941F480418161D5
:10559000816901F480410091816941F008018161D4
:1055A000806900F0080000904020019002200290E5
:1055B000032004900C4D01A92846FEF75BFD8021D5
:1055C00001910294039401A92846FEF753FD07496F
:1055D000486840F0E06040F00400486005B030BD2D
:1055E0000038014000100240000C01400000014062
:1055F000FEE700000148FEF77ABE000030010020FF
:105600000148FEF7D6BE000030010020C16AB1F5A6
:105610002A0F06D0C16AB1F12A4F01D10821C16217
:1056200070470121C162704738B50022406A90F886
:105630003D302B4946F2A8140968B1FBF4F1C1EBE7
:10564000C10101EB81010091009969B30099491EE4
:105650000091016809688905F6D4416B01B18A623D
:10566000816B01B18A6201680C6824F480640C606B
:105670004285416B01B14A63816B01B14A630168A4
:105680000C6824F001040C6090F83D10202460297F
:105690000FD0282535EA030113D080F83D4080F86B
:1056A0003E20FEF771FF38BD016C41F0200101641E
:1056B000D3E780F83D4080F83E200264FEF7E6FD27
:1056C00038BD01680B6843F001030B6001680B688B
:1056D00043F480630B60026380F83D50E1E7000013
:1056E0000C00002070B5044694F83D0094F83E107C
:1056F000102901D0402906D1222804D121680A6846
:1057000022F400620A60282131EA00024FF000050D
:105710004FF0200628D021684968090505D4602883
:1057200003D084F83D6084F83E50256320684168CA
:10573000090539D5416821F400614160606B3E493B
:1057400090F82120012A13D04163606BFEF798FA8C
:1057500048B32068016821F00101016084F83D60D0
:10576000606B416B884730E0256384F83D10DDE7CE
:10577000A06B4163A06BFEF783FAA0B1206841697A
:10578000C943490605D40069616A0870606A401C13
:1057900060622068016821F00101016084F83D60C9
:1057A000A06B416B884710E094F83D10602910D041
:1057B0004169C943490605D40069616A0870606A95
:1057C000401C60622046FEF7DFFE206CC1071CD142
:1057D00015E084F83D6025644169C943490605D454
:1057E0000069616A0870606A401C60622068016834
:1057F00021F0010101602046FEF748FDE5E7810741
:1058000003D4410701D4000704D52068416821F47E
:10581000E061416094F83D00216C49070BD52828D0
:1058200009D10648E062256384F83D6084F83E5063
:105830002046FEF777FF70BD295600080000FFFFE5
:1058400010B5C26A438D0168042B0FD0438D032B22
:105850001BD0438D022B30D00969426A1170416A16
:10586000491C4162418D491E418510BD4A6822F4A0
:1058700080624A6001680969426A1170416A491C84
:105880004162418D491E418510BD4B6823F4806300
:105890004B60042A06D0022A04D001680A6822F468
:1058A00080620A6001680969426A1170416A491C94
:1058B0004162418D491E418510BD012A30D0102A18
:1058C0002ED0042A31D0022A2FD00A6842F4007266
:1058D0000A6001680969426A1170416A491C4162A3
:1058E000428D521E4285026812690A70416A491C43
:1058F0004162418D491E418501684A6822F4407227
:105900004A60202180F83D1090F83E200021402A76
:1059100010D080F83E1012210163FEF705FF10BD84
:105920000A6822F480620A60D3E70A6842F480625F
:105930000A60CEE780F83E100163FEF7F7FE10BD67
:1059400010B5044694F83D00222814D1608D032838
:1059500012D920680069616A0870606A401C606240
:10596000608D401E6085608D032804D120684168E9
:1059700021F48061416010BDE16A0229FBD0012859
:1059800001D00028F7D1204600F02AFC0021202277
:10599000B0B12068436823F4E06343602068006985
:1059A000636A1870606A401C6062608D401E60858A
:1059B00084F83D2084F83E102046FEF7E5FD10BD3A
:1059C0002068036823F4806303602068436823F43D
:1059D000E063436020680069636A1870606A401C75
:1059E0006062608D401E608584F83D2094F83E0022
:1059F000402807D084F83E10122020632046FEF78E
:105A000093FE10BD84F83E1021632046FEF78EFE03
:105A100010BD10B5C16A90F83D20212A0BD1428DEE
:105A200052B1416A026809781161416A491C4162B8
:105A3000418D491E418510BD20230022082912D026
:105A4000202910D011F5803F0DD001684C6824F456
:105A5000E0644C601121016380F83E2080F83D3005
:105A6000FEF763FE10BD01684C6824F4E0644C60EE
:105A700001680C6844F400740C60026380F83D30E7
:105A800090F83E10402904D080F83E20FEF74DFEED
:105A900010BD80F83E20FEF74AFE10BD10B590F80C
:105AA0003D1090F83E30C26A048D002C01D12129AE
:105AB00016D0212903D0402B11D122290FD1418D9D
:105AC000D9B390F83E10402943D0416A0268097862
:105AD0001161416A491C4162418D491E418510BDD9
:105AE00020240023082A12D0202A10D012F5803F4B
:105AF0000DD001684A6822F4E0624A601121016316
:105B000080F83E3080F83D40FEF70FFE10BD016882
:105B10004A6822F4E0624A6001680A6842F400724E
:105B20000A60036380F83D4090F83E10402905D09C
:105B300080F83E30FEF7F9FD10BD04E080F83E30FD
:105B4000FEF7F5FDF8E70068416821F480614160E7
:105B5000F2E7BDE8104000F031B9416C0268C9B20B
:105B60001161416B002901D0896A29B9816B002933
:105B700007D0896A002904D00068416841F40061B7
:105B80004160704778B590F83E40C26A056B90F866
:105B90003D6000230168222E03D048698869009087
:105BA00078BD066D0EB9402C02D0046D24B107E01B
:105BB00048698869009078BD0469B4F5404F1BD0EE
:105BC000448D24B3468D544C012E28D0458D022D92
:105BD00069D00D6845F480650D6001684D682D053C
:105BE00009D5A24272D0012A70D0082A6ED0102A9C
:105BF0006CD0202A6AD089E04A698A6900920A68D2
:105C000042F480720A60016D491C016578BD4A69E1
:105C10008A6900920A6842F400720A607AE0A2423D
:105C200018D10A6822F480620A6001684A68120585
:105C300008D50A6822F480620A6001684A698969A5
:105C4000009167E04A698A6900920A6842F400722A
:105C50000A605FE0082A05D0202A03D0122D0ED159
:105C6000012A0CD00A6822F480620A6001684A693D
:105C70008A6900920A6842F400720A604AE0042AC3
:105C800008D0022A06D0102A04D00A6822F48062C2
:105C90000A6003E00A6842F480620A6001684A69A7
:105CA0008969009136E0042A11D0022A0FD0102A07
:105CB0000DD00D6845F400650D6001684D698D6972
:105CC00000950D6825F480650D6008E01AE00D6808
:105CD00045F480650D6001684D698969009101682E
:105CE0004D682D0516D5A24207D0012A05D0082AF5
:105CF00003D0102A01D0202A0CD14A6842F48052E5
:105D00004A6007E04A6842F480524A6001684A6982
:105D100089690091036578BD0000FFFF90F83E108F
:105D2000402911D00169B1F5804F1CD0016D79B3C4
:105D3000016D012907D1416C006801F44071F12225
:105D400042EAD11101617047016D31B1416C0068C7
:105D5000C9B241F0010101617047416C006801F076
:105D6000FE010161704790F83D1021290AD0416C75
:105D70000268C9B241F001011161416B49B1896A00
:105D800069B906E0416C026801F0FE011161F4E7B7
:105D90000BE0816B0029E5D0896A0029E2D0006818
:105DA000416841F4006141607047416C006801F452
:105DB0004071F02242EAD1110161704710B590F8AC
:105DC0003D10026D002A24D0026D012A35D0026DEB
:105DD000022A1DD1222938D0428D0AB121293DD075
:105DE000428D002A14D1212912D101684A6822F477
:105DF000E0624A6001680A6842F400720A600021A9
:105E00000163202280F83D2080F83E10FEF78FFCD1
:105E100010BDC16C012908D0816C0268C1F3072153
:105E20001161016D491C016510BD816C0268C9B228
:105E30001161016D891C016510BD816C0268C9B2D8
:105E40001161016D491C016510BD01680A6842F4C9
:105E500080720A60016D491C016510BD416A0268CB
:105E600009781161416A491C4162418D491E418591
:105E700010BD418D002909D001680969426A11707D
:105E8000416A491C4162418D491E4185704710B5E8
:105E900090F83D10428D002A1AD002681269436AB8
:105EA0001A70426A521C4262428D521E4285428DD5
:105EB000002A0DD12A290BD101684A6822F4806298
:105EC0004A6022210163282180F83D10FEF79AFCE8
:105ED00010BD418D002909D0416A0268097811611D
:105EE000416A491C4162418D491E4185704710B588
:105EF00090F83D10428D002A1AD0426A0368127849
:105F00001A61426A521C4262428D521E4285428D83
:105F1000002A0DD129290BD101684A6822F4806238
:105F20004A6021210163282180F83D10FEF76CFCB6
:105F300010BD38B50C46002190F83D20282595432A
:105F400002680B4605D051699169009180F83C3098
:105F500038BD556825F480655560E243540700D587
:105F60000121120602D5828992B201E0028B92B21F
:105F700080F83C30FEF78CF938BD00002DE9F04187
:105F800090F83D20C36A002520271C4E01686FF45D
:105F90008064082B01D0202B01D1282A04D0212A8B
:105FA00016D04C61BDE8F081C6624A6822F4E06216
:105FB0004A6001684C6101680A6822F480620A60E4
:105FC000056380F83D7080F83E50FEF7ABFBE9E7D3
:105FD000C6622122026380F83D7080F83E504A6814
:105FE00022F4E0624A6001684C6101680A6822F4A8
:105FF00080620A60FEF708FCD4E700000000FFFFA3
:1060000070B586B00024029403940494059411485A
:10601000816941F008018161806900F00800019008
:106020000D4E4FF44075012229463046FEF721F906
:1060300002950122039204940222059202A930469D
:10604000FEF718F8012229463046FEF712F906B08D
:1060500070BD000000100240000C014010B5074860
:10606000FEF72CF90548FEF763FBFFF7C9FF00F0C8
:1060700067FABDE810400148FEF769BA3001002018
:10608000F8B5044694F83D502068416821F4E06179
:1060900041600026206841690091016841F00101DA
:1060A00001602068016821F4806101602068416816
:1060B000090520D5484F222D48D02A2D46D0616BA6
:1060C000096849686185618D19B1216C41F004014D
:1060D0002164416821F400614160606BFDF71CFEA2
:1060E000012808D0606B4763606BFDF7C9FD10B1F4
:1060F000606B416B8847608D08B320684169C94374
:10610000490708D40069616A0870606A401C6062CF
:10611000608D401E608520684169C943490608D4E6
:106120000069616A0870606A401C6062608D401E90
:106130006085608D18B1206C40F004002064206CF4
:1061400010B32046BDE8F840FFF7CCBAA16B096850
:1061500049686185618D19B1216C41F004012164A8
:10616000416821F400614160A06BFDF7D5FD012875
:10617000C1D0A06B4763A06BFDF782FD0028BAD0A9
:10618000A06B416B8847B6E72A2D06D126632820ED
:1061900084F83D002046FEF735FB94F83D102020A2
:1061A00028290DD0216B222901D0222D07D1266369
:1061B00084F83D0084F83E602046FEF723FBF8BDDE
:1061C0000649E162266384F83D0084F83E6020467B
:1061D000FEF7A8FAF8BD0000295600080000FFFFEE
:1061E00008B50D4946F2A8120968B1FBF2F101EBBE
:1061F000810100910099491E0091009929B101681F
:1062000009688905F6D4002008BD016C41F0200121
:106210000164012008BD00000C00002070B5274D6E
:1062200040212846FEF71EF8002846D10A20FDF737
:10623000E3FD40212846FEF715F800283DD1002453
:106240004FF4967605E00A20FDF7D6FDB44206D25B
:10625000641C40212846FEF705F80028F3D0B4421C
:1062600011D217490522087820B1022804D003284A
:1062700005D005E00A7003E00420087000E00A7011
:1062800000F01EFE13E00F4C2078401CC0B22070BE
:10629000042801D300202070207800F019F800F0C5
:1062A00061FE2178018001F00DF8FFF7D7FE402153
:1062B0002846FDF7D7FF0028F9D070BD000801403F
:1062C0001800002020000020002000F063B800002B
:1062D00070B504460B4D04F001024FF4004128460E
:1062E000FDF7C7FFC4F3400269142846FDF7C1FF5C
:1062F000C4F380022846BDE870404FF48041FDF7AA
:10630000B8BF0000000C014070B51E48007800289E
:106310000BD01D4D02280DD003281FD001281CD101
:10632000BDE87040002000F035B8BDE870400020A6
:1063300000F030B80024154E305D7D2801D90122CF
:1063400000E0002205EBC400818855F83400FDF719
:1063500090FF641CE4B2062CEED370BD00240C4EFA
:10636000305D01280CD0002205EBC400818855F86F
:106370003400FDF77EFF641CE4B2062CF0D370BD40
:106380000122F1E718000020B87300083000002057
:10639000B200002070B506460024094D012E0CD035
:1063A000002205EBC400818855F83400FDF761FF39
:1063B000641CE4B2062CF1D370BD0122F1E70000A9
:1063C000B8730008FEB50024009401940294294893
:1063D00027490160891581600125057304754FF413
:1063E0006021C161446006260661FDF7E3FA08B149
:1063F000FDF733F9009401950720029069461D4886
:10640000FDF750FA08B1FDF728F900950224019430
:1064100069461848FDF746FA08B1FDF71EF90094E1
:106420000324019469461348FDF73CFA08B1FDF7CF
:1064300014F900940424019469460E48FDF732FAD9
:1064400008B1FDF70AF9009405240194694609484A
:10645000FDF728FA08B1FDF700F9009401966946A6
:106460000448FDF71FFA002801D0FDF7F6F8FEBD3D
:1064700000240140BC00002008B50548416941F0F6
:1064800001014161406900F00100009008BD000079
:10649000001002402DE9F04385B0002401940294DD
:1064A000039404942348816941F02001816181694A
:1064B00001F020010091816941F00401816181694D
:1064C00001F004010091816941F008018161806956
:1064D00000F008000090DFF8608001228021404633
:1064E000FDF7C7FEDFF854904FF603470122394607
:1064F0004846FDF7BEFE4020019002940125039519
:1065000001A94046FDF7B6FD802001900295039455
:106510000226049601A94046FDF7ACFD01970295BD
:106520000394049601A94846FDF7A4FD05B0BDE813
:10653000F08300000010024000080140000C014000
:1065400010B510480E4901600F494160002181607B
:10655000E022C2604FF480420261012242610C4B92
:106560000A4A1B78D25C52008261C1610162FEF767
:106570000DF8002803D0BDE81040FDF76EB810BD3F
:106580000054004030010020A0860100E87300089C
:106590002000002010B592B00024109411941C210A
:1065A00009A8FCF7D6FD202101A8FCF7D2FD284858
:1065B00026490160472141608460FF21C160046178
:1065C00044618461FEF713FF08B1FDF746F81094AB
:1065D000119410A91E48FEF747FE08B1FDF73DF8DB
:1065E000702009900A940B940C940D940E940F94BF
:1065F000002209A91648FEF791FE08B1FDF72DF813
:10660000042209A91248FEF789FE08B1FDF725F812
:10661000082209A90E48FEF781FE08B1FDF71DF812
:10662000019402940394049405944FF4005006904E
:10663000089401A90648FEF7EDFD08B1FDF70DF835
:106640000348FEF745FE12B010BD0000002C0140CB
:106650008401002010B50C480A4901604FF4E13173
:10666000416000218160C16001610C224261816151
:10667000C161FEF74BFF002803D0BDE81040FCF7D6
:10668000ECBF10BD00380140CC010020FEE7FEF752
:10669000DFFBFEE77047000008B507494FF4FA52E8
:1066A0000968B1FBF2F14143009100BF0098411E1F
:1066B0000091FAD208BD00000C00002070470000D5
:1066C00010B500F04FFC00880649042802D30020D2
:1066D000087000E00870FFF7C1FCBDE810400248F8
:1066E000FDF735BF2000002030010020FEF706B97D
:1066F00030B593B0282109A8FCF72BFD142104A87C
:10670000FCF727FD002400940194029403940121D6
:10671000099108040A900B940D910225109511908F
:106720004FF4E010129009A8FEF79EFB08B1FCF7A9
:1067300094FF0F200490059506944FF48060079015
:106740000894022104A8FEF773FA08B1FCF785FF4C
:1067500000954FF4004002906846FEF7E1F908B159
:10676000FCF77BFFFEF70EFB13B030BD7047000057
:10677000F0B50268164C174D174E4FF08047A042F7
:1067800005D0B84203D0A84201D0B04203D122F0D4
:1067900070034A681A43A04205D0B84203D0A84209
:1067A00001D0B04203D122F44073CA681A434B6946
:1067B00022F080021A4302608A68C2620A6882621A
:1067C000A04201D10969016301214161F0BD0000CE
:1067D000002C0140000400400008004010B501F00A
:1067E0001F0101238B40046A9C430462036A8A40B0
:1067F0001343036210BD000030B5026A22F00102AB
:106800000262036A4268846924F0700424F003057C
:106810000C682C4323F002058B682B430D4DA842D6
:1068200006D123F00805CB6843EA050323F00403EF
:1068300009D122F4807222F400724D6945EA020502
:106840008A6942EA050242608461496841630362E1
:1068500030BD0000002C014030B5026A22F0100269
:106860000262036A4268846924F4E04424F44074B8
:106870000D6844EA052423F020038D6843EA0513DC
:106880000D4DA84206D123F08003CD6843EA0513DD
:1068900023F0400309D122F4806222F400624D69A2
:1068A00042EA85028D6942EA850242608461496854
:1068B0008163036230BD0000002C014030B5026AE4
:1068C00022F480720262036A4268C46924F0700490
:1068D00024F003050C682C4323F400738D6843EA0D
:1068E00005230D4DA84206D123F40063CD6843EA89
:1068F000052323F4806309D122F4805222F400524C
:106900004D6942EA05128D6942EA05124260C4618E
:106910004968C163036230BD002C014030B5026A92
:1069200022F480520262036A4268C46924F4E0449B
:1069300024F440740D6844EA052423F400538D6860
:1069400043EA0533064DA84204D122F480424D6942
:1069500042EA85124260C46149680164036230BD45
:10696000002C01400949012807D0022808D003283B
:1069700009D0A1F108004860704705484860704799
:106980000448486070470448486070471800002079
:106990002500002030000020B200002070B5044621
:1069A00020680169E26821F4405111430161A16846
:1069B00020690143606901432068C26841F20C63A9
:1069C0009A430A43C26020684169A26921F4407178
:1069D000114341611E492068884202D1FEF7EEF959
:1069E00001E0FEF7DBF900EBC00101EB001061688C
:1069F00064228900B0FBF1F3B3FBF2F36FF01806E9
:106A00007343B0FBF1F5B0FBF1F605EB83053223E0
:106A100003EB0515B5FBF2F5B6FBF2F605F0F00554
:106A200005EB0615B0FBF1F6B0FBF1F0B0FBF2F0B0
:106A30006FF01801484306EB800003EB0010B0FB39
:106A4000F2F0216800F00F002844886070BD00005B
:106A500000380140FEE700000FB4054B10B503A954
:106A6000044A029800F028F810BC5DF814FB0000FE
:106A7000216F0008B80000200907090E002804DB78
:106A800000F1E02080F80014704700F00F0000F1E2
:106A9000E02080F8141D704702E008C8121F08C1EA
:106AA000002AFAD170477047002001E001C1121F8F
:106AB000002AFBD1704700002DE9FF4F89B09B46AB
:106AC0000446002506E025280BD05A460B9990472E
:106AD000641C6D1C20780028F5D10DB02846BDE857
:106AE000F08F0027B8460122474900E0074314F819
:106AF000013F203B02FA03F00842F7D120782E280C
:106B000019D114F8010F47F004072A280ED06FF0AE
:106B10002F022078A0F1300109290CD808EB880158
:106B200002EB410100EB0108641CF2E70A98641CC7
:106B300050F8048B0A9020780028CED0642808D022
:106B4000692806D075281ED05A460B9990476D1CAF
:106B500058E00A994FF00A0901C90A91002802DA9F
:106B600040422D2102E0390504D52B218DF820105B
:106B7000012103E0F90704D02021F7E78A4608AE97
:106B80000DE00021FAE70A994FF00A0901C90A91BC
:106B9000F7E74946FCF77AFB303106F8011D00287B
:106BA000F7D1ADEB060000F12009780701D44FF0D2
:106BB0000108C84502DDA8EB090000E0002080467E
:106BC000002706E008A85A46C05D0B9990476D1C47
:106BD0007F1C5745F6DB04E030205A460B9990475E
:106BE0006D1CB8F10001A8F10108F5DC05E016F80C
:106BF000010B5A460B9990476D1CB9F10001A9F1A0
:106C00000109F4DC641C65E70928010070B500F097
:106C1000A9F9C83000220B4D0023002102EB4204E9
:106C200005EBC404401C24F821300370491CC9B290
:106C30000629F7D3521CD2B2062AEED3BDE8704023
:106C400000F040BBA003002010B50246014600F052
:106C500013F80020064B074A195CAA2901D9012123
:106C600000E000211154401CC0B20628F4D310BD2E
:106C700030000020B20000202DE9F04100F06CFA55
:106C80000120FDF7B9F800202449254E51F82020B5
:106C900046F82020401CC0B20628F7D30024214F1C
:106CA00004EB840007EB800556F82400A968091A54
:106CB00000EB41002969401AFCF7C6FAE968FCF7C5
:106CC00053FAFCF7CAFA46F82400641CE4B2062C16
:106CD000E6D30020134B40F6FF72083B56F8201015
:106CE000002902DA002146F8201056F82010C1EBE6
:106CF0000121B1FBF2F146F82010FF2900DDFF2150
:106D000046F82010002900DA002146F82010195416
:106D1000401CC0B20628E1D3BDE8F0815C0200202F
:106D2000C8040020380000202DE9F84100234F1E40
:106D30001AE05A1C9446D2B200EB830610E030F8F9
:106D4000224030F82350AC4208D23468009400EB63
:106D50008205D5F80080C6F800802C60521CD2B2A3
:106D60008A42ECD30CF0FF03BB42E2DBBDE8F881C2
:106D70002DE9F04100F0F6F800F1C8050026DFF833
:106D80003880002406EB460008EBC0076D1C2B780A
:106D900027F824302246314608A0FFF75DFE641C28
:106DA000E4B2062CF2D30BA0FFF756FE761CF6B227
:106DB000062EE6D3BDE8F081A0030020636F6C6F60
:106DC000725F6275665B25645D5B25645D2E68207D
:106DD0003D2025640A0000002DE9F05F8146B9F1ED
:106DE000060F64D20026DFF8CCA0DFF8CCB0DFF8C5
:106DF000CC8000250BEB860700249AF802209AF835
:106E000001109AF8000000F041F93BF8260028F83C
:106E1000240008EB8400B9788170F978C170641C93
:106E2000E4B20A2CE9D3FF221146104600F094F98F
:106E30000F20FCF7E1FF00221146104600F08CF90C
:106E40000F20FCF7D9FF0A211C48FFF76DFF1B48F4
:106E5000B8F81410283020F8251000EB850098F8B9
:106E60001610817098F81710C1706D1CEDB20A2DC4
:106E7000C2D312480A212830FFF756FF0F4906EB0C
:106E800046032831A1F1B80000EBC3008A8A20F83C
:106E9000292000EB89008A7D8270C97DC170761C33
:106EA000F6B2062EA5D3BDE8F05F00F03BBABDE810
:106EB000F09F00002100002030020020300400205C
:106EC000094801210078042802D302D10748017043
:106ED0007047052804D00B28FAD80548C1707047C0
:106EE0000448017070470000180000202B000020AB
:106EF00021000020B0000020704700000020064A5A
:106F0000064902EB4003B3F8003C21F81030401C66
:106F1000C0B29628F5D3704700F000087402002034
:106F200004490A685206FCD5024AC1B2121D11601A
:106F3000704700000038014010B58B1843F34F0331
:106F4000591A00D549428CB2991A00D5494289B2E2
:106F50002144B1EB500F01D288B210BD401A80B26B
:106F600010BD0000004870477402002010B5FFF704
:106F7000CBF9FCF7E9FABDE81040FFF74FB978B557
:106F80008302FF20B3FBF0F39BB28902B1FBF0F167
:106F900089B29202B2FBF0F080B28B4205D28342FA
:106FA00001D21C4606E0044604E0814201D20C46B0
:106FB00000E004468B4205D9834201D91A4606E017
:106FC000024604E0814201D90A4600E002466425F7
:106FD0005543AD0A8DF80350141B0026032C05DA27
:106FE000ADF800608DF80260009878BD64256543B7
:106FF00095FBF2F5EDB28DF80250032D03D2ADF8FA
:107000000060009878BD9A420BD10A1A920292FB56
:10701000F4F2814202D24FF4C05000E0002010444C
:1070200012E08A4206D1C01A800290FBF4F000F50B
:10703000006009E0824206D1581A800290FBF4F009
:1070400000F5805000E00020C0EB001080008012AE
:10705000002801DA00F5B470ADF80000009878BDA2
:10706000FDF754FCFFF744FBFFF714FAFFF704FAAF
:10707000FFF766FAFFF7EEFAFFF7A4F9FFF78AFACF
:1070800000F074F8FFF772FFFCE700002DE9F84309
:10709000884617460022114600F05EF80120FCF7F2
:1070A000ABFE0020294E2A4D40F6FF7456F82020F2
:1070B000C2EB0221B1FBF4F100EB4002A954401CE9
:1070C0000628F3DB00224146104600F045F8012077
:1070D000FCF792FE002000EB400256F820102A44F4
:1070E000C1EB0121B1FBF4F15170401C0628F2DB29
:1070F00000213A46084600F02FF80120FCF77CFEFC
:10710000002000EB400256F820102A44C1EB012178
:10711000B1FBF4F19170401C0628F2DB002211460D
:10712000104600F019F800240A4E04EB44004119FF
:10713000285C8A784978FFF722FF06EB84010090EB
:107140000860641C062CF0DBBDE8F8835C020020BC
:107150004802002030020020034B1860181D016017
:10716000001D026070470000342C014010B5002162
:107170001348FEF775F904211148FEF771F908214B
:107180000F48FEF76DF90F48FCF712FB06220E4977
:107190000C48FCF7E5FCFFF7B1FEFFF795F8FCF7AC
:1071A000CDF9FFF78DFAFCF7E5FAFCF773F9FFF775
:1071B000DFFD06480078BDE81040FFF789B8000001
:1071C00084010020BC0000205C0200202000002080
:1071D00002460146AFF300802DE9F047804689461C
:1071E00092460020334E002240F6FF7300EB8001F0
:1071F00046F8212006EB81014B60401CC0B20628F6
:10720000F4D3FDF73DF8044641F288302A49097865
:1072100045182A4F27E0524649464046FFF79CFF53
:107220000120FCF7E9FD002000EB800257F8201058
:1072300056F82230994201D946F8221006EB820214
:107240005368994200D25160401CC0B20628EBD36B
:107250000F20FCF7D1FD002211461046FFF77CFFFE
:107260000F20FCF7C9FDFDF70BF8001BA842D2D395
:107270000024DFF84C9004EB840006EB800556F800
:1072800020806F68A8EB0700FBF7DEFF0146484649
:10729000FBF79CFFE86008EB070000EBD0704010A4
:1072A000A8602F61641CE4B2062CE4D3BDE8F0476B
:1072B00000F056B838000020000000205C020020DA
:1072C00000F07F459621014800F002B874020020CA
:1072D000F0B585B006460F46FCF744FE002101914B
:1072E000012002900E4D039504900091694601A87B
:1072F000FCF794FD0520FCF77FFD002409E036F83B
:10730000142005EB440100230120FCF7E5FD641C7B
:10731000E4B2BC42F3D3FCF7D5FD05B0F0BD0000EC
:1073200000FC000870B5FFF71DFEC83000220B4DB1
:10733000002102EB420305EBC303401C13F821407C
:107340000470491CC9B20629F7D3521CD2B2062ACE
:10735000EED3BDE87040FFF7B5BF0000A0030020EA
:1073600010B5FFF7FFFD801C00210C4B143001EB22
:10737000810253F82240046003EB820254684460A7
:107380009468846014690461D268C260491CC9B2FF
:107390000629EBD3BDE81040FFF794BF380000206A
:1073A00000000000000000000102030406070809B5
:1073B00000000000010203040008014080000000FA
:1073C000000C014001000000000C01400200000020
:1073D000000C014000040000000C01400008000007
:1073E000000C014000100000717273740C740008EE
:1073F00000000020BC000000986A0008C874000863
:10740000BC00002024080000A86A00080100000059
:1074100010000000000000000024F4000000000044
:1074200000000000000000000000000000C8C8C804
:107430000000000000000000FFFFFF00000000004F
:1074400000000000FF0F000000000000FF07000028
:107450000000803F00000000FF0F0000000000005F
:10746000FF0700000000803F00000000FF0F000049
:1074700000000000FF0700000000803F0000000047
:10748000FF0F000000000000FF0700000000803F29
:1074900000000000FF0F000000000000FF070000D8
:1074A0000000803F00000000FF0F0000000000000F
:1074B000FF0700000000803F0000000000FF000008
:0874C0000000000000000000C4
:04000005080030EDD2
:00000001FF
